{"contracts/DappVotes.sol":{"DappVotes":{"abi":[{"anonymous":false,"inputs":[{"indexed":true,"internalType":"address","name":"voter","type":"address"},{"indexed":false,"internalType":"uint256","name":"timestamp","type":"uint256"}],"name":"Voted","type":"event"},{"inputs":[{"internalType":"uint256","name":"id","type":"uint256"},{"internalType":"string","name":"name","type":"string"},{"internalType":"string","name":"image","type":"string"}],"name":"contest","outputs":[],"stateMutability":"nonpayable","type":"function"},{"inputs":[{"internalType":"string","name":"image","type":"string"},{"internalType":"string","name":"title","type":"string"},{"internalType":"string","name":"description","type":"string"},{"internalType":"uint256","name":"startsAt","type":"uint256"},{"internalType":"uint256","name":"endsAt","type":"uint256"}],"name":"createPoll","outputs":[],"stateMutability":"nonpayable","type":"function"},{"inputs":[{"internalType":"uint256","name":"id","type":"uint256"}],"name":"deletePoll","outputs":[],"stateMutability":"nonpayable","type":"function"},{"inputs":[{"internalType":"uint256","name":"id","type":"uint256"}],"name":"getContestant","outputs":[{"components":[{"internalType":"uint256","name":"id","type":"uint256"},{"internalType":"string","name":"image","type":"string"},{"internalType":"string","name":"name","type":"string"},{"internalType":"address","name":"voter","type":"address"},{"internalType":"uint256","name":"votes","type":"uint256"},{"internalType":"address[]","name":"voters","type":"address[]"}],"internalType":"struct DappVotes.ContestantStruct[]","name":"Contestants","type":"tuple[]"}],"stateMutability":"view","type":"function"},{"inputs":[{"internalType":"uint256","name":"id","type":"uint256"},{"internalType":"uint256","name":"cid","type":"uint256"}],"name":"getContestant","outputs":[{"components":[{"internalType":"uint256","name":"id","type":"uint256"},{"internalType":"string","name":"image","type":"string"},{"internalType":"string","name":"name","type":"string"},{"internalType":"address","name":"voter","type":"address"},{"internalType":"uint256","name":"votes","type":"uint256"},{"internalType":"address[]","name":"voters","type":"address[]"}],"internalType":"struct DappVotes.ContestantStruct","name":"","type":"tuple"}],"stateMutability":"view","type":"function"},{"inputs":[{"internalType":"uint256","name":"id","type":"uint256"}],"name":"getPoll","outputs":[{"components":[{"internalType":"uint256","name":"id","type":"uint256"},{"internalType":"string","name":"image","type":"string"},{"internalType":"string","name":"title","type":"string"},{"internalType":"string","name":"description","type":"string"},{"internalType":"uint256","name":"votes","type":"uint256"},{"internalType":"uint256","name":"contestants","type":"uint256"},{"internalType":"bool","name":"deleted","type":"bool"},{"internalType":"address","name":"director","type":"address"},{"internalType":"uint256","name":"startsAt","type":"uint256"},{"internalType":"uint256","name":"endsAt","type":"uint256"},{"internalType":"uint256","name":"timestamp","type":"uint256"},{"internalType":"address[]","name":"voters","type":"address[]"},{"internalType":"string[]","name":"avatars","type":"string[]"}],"internalType":"struct DappVotes.PollStruct","name":"","type":"tuple"}],"stateMutability":"view","type":"function"},{"inputs":[],"name":"getPolls","outputs":[{"components":[{"internalType":"uint256","name":"id","type":"uint256"},{"internalType":"string","name":"image","type":"string"},{"internalType":"string","name":"title","type":"string"},{"internalType":"string","name":"description","type":"string"},{"internalType":"uint256","name":"votes","type":"uint256"},{"internalType":"uint256","name":"contestants","type":"uint256"},{"internalType":"bool","name":"deleted","type":"bool"},{"internalType":"address","name":"director","type":"address"},{"internalType":"uint256","name":"startsAt","type":"uint256"},{"internalType":"uint256","name":"endsAt","type":"uint256"},{"internalType":"uint256","name":"timestamp","type":"uint256"},{"internalType":"address[]","name":"voters","type":"address[]"},{"internalType":"string[]","name":"avatars","type":"string[]"}],"internalType":"struct DappVotes.PollStruct[]","name":"Polls","type":"tuple[]"}],"stateMutability":"view","type":"function"},{"inputs":[{"internalType":"uint256","name":"id","type":"uint256"},{"internalType":"string","name":"image","type":"string"},{"internalType":"string","name":"title","type":"string"},{"internalType":"string","name":"description","type":"string"},{"internalType":"uint256","name":"startsAt","type":"uint256"},{"internalType":"uint256","name":"endsAt","type":"uint256"}],"name":"updatePoll","outputs":[],"stateMutability":"nonpayable","type":"function"},{"inputs":[{"internalType":"uint256","name":"id","type":"uint256"},{"internalType":"uint256","name":"cid","type":"uint256"}],"name":"vote","outputs":[],"stateMutability":"nonpayable","type":"function"}],"evm":{"bytecode":{"linkReferences":{},"object":"608060405234801561001057600080fd5b5061246e806100206000396000f3fe608060405234801561001057600080fd5b50600436106100935760003560e01c80631f35b51d116100665780631f35b51d1461010b57806366dd51dc1461011e578063b384abef14610131578063d343641114610144578063f0d0bc451461016457600080fd5b8063029433f0146100985780630559dd65146100ad578063120fe89b146100d65780631a8cbcaa146100eb575b600080fd5b6100ab6100a6366004611cd8565b610177565b005b6100c06100bb366004611d7c565b61042f565b6040516100cd9190611e96565b60405180910390f35b6100de610735565b6040516100cd9190612046565b6100fe6100f9366004611d7c565b610bb5565b6040516100cd919061209b565b6100ab610119366004611d7c565b610f37565b6100ab61012c3660046120b5565b611018565b6100ab61013f366004612122565b611273565b610157610152366004612122565b611551565b6040516100cd9190612144565b6100ab610172366004612157565b61174c565b60008681526002602052604090205460ff166101ae5760405162461bcd60e51b81526004016101a5906121f1565b60405180910390fd5b60008681526003602052604090206006015461010090046001600160a01b031633146102125760405162461bcd60e51b8152602060048201526013602482015272556e617574686f72697a656420656e7469747960681b60448201526064016101a5565b600084511161025b5760405162461bcd60e51b81526020600482015260156024820152745469746c652063616e6e6f7420626520656d70747960581b60448201526064016101a5565b60008351116102ac5760405162461bcd60e51b815260206004820152601b60248201527f4465736372697074696f6e2063616e6e6f7420626520656d707479000000000060448201526064016101a5565b60008551116102cd5760405162461bcd60e51b81526004016101a590612219565b60008681526003602052604090206006015460ff161561032f5760405162461bcd60e51b815260206004820152601760248201527f506f6c6c696e6720616c72656164792064656c6574656400000000000000000060448201526064016101a5565b6000868152600360205260409020600401546001116103605760405162461bcd60e51b81526004016101a590612250565b8181116103c45760405162461bcd60e51b815260206004820152602c60248201527f456e642064617465206d7573742062652067726561746572207468616e20746860448201526b65207374617274206461746560a01b60648201526084016101a5565b60008681526003602052604090206002016103df8582612309565b506000868152600360208190526040909120016103fc8482612309565b50600086815260036020526040902060078101839055600881018290556001016104268682612309565b50505050505050565b6060600060015b60005481101561048157600084815260066020908152604080832084845290915290205460010361046f578161046b816123df565b9250505b80610479816123df565b915050610436565b508067ffffffffffffffff81111561049b5761049b611c35565b6040519080825280602002602001820160405280156104d457816020015b6104c1611a5d565b8152602001906001900390816104b95790505b509150600060015b60005481101561072d57600085815260066020908152604080832084845290915290205460010361071b576000858152600660209081526040808320848452825291829020825160c0810190935280548352600181018054919284019161054290612280565b80601f016020809104026020016040519081016040528092919081815260200182805461056e90612280565b80156105bb5780601f10610590576101008083540402835291602001916105bb565b820191906000526020600020905b81548152906001019060200180831161059e57829003601f168201915b505050505081526020016002820180546105d490612280565b80601f016020809104026020016040519081016040528092919081815260200182805461060090612280565b801561064d5780601f106106225761010080835404028352916020019161064d565b820191906000526020600020905b81548152906001019060200180831161063057829003601f168201915b505050505081526020016003820160009054906101000a90046001600160a01b03166001600160a01b03166001600160a01b0316815260200160048201548152602001600582018054806020026020016040519081016040528092919081815260200182805480156106e857602002820191906000526020600020905b81546001600160a01b031681526001909101906020018083116106ca575b5050505050815250508483806106fd906123df565b94508151811061070f5761070f6123f8565b60200260200101819052505b80610725816123df565b9150506104dc565b505050919050565b6060600060015b60005481101561077f5760008181526003602052604090206006015460ff1661076d5781610769816123df565b9250505b80610777816123df565b91505061073c565b508067ffffffffffffffff81111561079957610799611c35565b6040519080825280602002602001820160405280156107d257816020015b6107bf611a9c565b8152602001906001900390816107b75790505b509150600060015b600054811015610baf5760008181526003602052604090206006015460ff16610b9d5760036000828152602001908152602001600020604051806101a00160405290816000820154815260200160018201805461083690612280565b80601f016020809104026020016040519081016040528092919081815260200182805461086290612280565b80156108af5780601f10610884576101008083540402835291602001916108af565b820191906000526020600020905b81548152906001019060200180831161089257829003601f168201915b505050505081526020016002820180546108c890612280565b80601f01602080910402602001604051908101604052809291908181526020018280546108f490612280565b80156109415780601f1061091657610100808354040283529160200191610941565b820191906000526020600020905b81548152906001019060200180831161092457829003601f168201915b5050505050815260200160038201805461095a90612280565b80601f016020809104026020016040519081016040528092919081815260200182805461098690612280565b80156109d35780601f106109a8576101008083540402835291602001916109d3565b820191906000526020600020905b8154815290600101906020018083116109b657829003601f168201915b505050918352505060048201546020808301919091526005830154604080840191909152600684015460ff8116151560608501526001600160a01b0361010091829004166080850152600785015460a0850152600885015460c0850152600985015460e0850152600a8501805483518186028101860190945280845291909401939192830182828015610a8f57602002820191906000526020600020905b81546001600160a01b03168152600190910190602001808311610a71575b50505050508152602001600b8201805480602002602001604051908101604052809291908181526020016000905b82821015610b69578382906000526020600020018054610adc90612280565b80601f0160208091040260200160405190810160405280929190818152602001828054610b0890612280565b8015610b555780601f10610b2a57610100808354040283529160200191610b55565b820191906000526020600020905b815481529060010190602001808311610b3857829003601f168201915b505050505081526020019060010190610abd565b5050505081525050848381518110610b8357610b836123f8565b60200260200101819052508180610b99906123df565b9250505b80610ba7816123df565b9150506107da565b50505090565b610bbd611a9c565b60036000838152602001908152602001600020604051806101a001604052908160008201548152602001600182018054610bf690612280565b80601f0160208091040260200160405190810160405280929190818152602001828054610c2290612280565b8015610c6f5780601f10610c4457610100808354040283529160200191610c6f565b820191906000526020600020905b815481529060010190602001808311610c5257829003601f168201915b50505050508152602001600282018054610c8890612280565b80601f0160208091040260200160405190810160405280929190818152602001828054610cb490612280565b8015610d015780601f10610cd657610100808354040283529160200191610d01565b820191906000526020600020905b815481529060010190602001808311610ce457829003601f168201915b50505050508152602001600382018054610d1a90612280565b80601f0160208091040260200160405190810160405280929190818152602001828054610d4690612280565b8015610d935780601f10610d6857610100808354040283529160200191610d93565b820191906000526020600020905b815481529060010190602001808311610d7657829003601f168201915b505050918352505060048201546020808301919091526005830154604080840191909152600684015460ff8116151560608501526001600160a01b0361010091829004166080850152600785015460a0850152600885015460c0850152600985015460e0850152600a8501805483518186028101860190945280845291909401939192830182828015610e4f57602002820191906000526020600020905b81546001600160a01b03168152600190910190602001808311610e31575b50505050508152602001600b8201805480602002602001604051908101604052809291908181526020016000905b82821015610f29578382906000526020600020018054610e9c90612280565b80601f0160208091040260200160405190810160405280929190818152602001828054610ec890612280565b8015610f155780601f10610eea57610100808354040283529160200191610f15565b820191906000526020600020905b815481529060010190602001808311610ef857829003601f168201915b505050505081526020019060010190610e7d565b505050915250909392505050565b60008181526002602052604090205460ff16610f655760405162461bcd60e51b81526004016101a5906121f1565b60008181526003602052604090206006015461010090046001600160a01b03163314610fc95760405162461bcd60e51b8152602060048201526013602482015272556e617574686f72697a656420656e7469747960681b60448201526064016101a5565b600081815260036020526040902060040154600111610ffa5760405162461bcd60e51b81526004016101a590612250565b6000908152600360205260409020600601805460ff19166001179055565b60008381526002602052604090205460ff166110465760405162461bcd60e51b81526004016101a5906121f1565b600082511161108e5760405162461bcd60e51b81526020600482015260146024820152734e616d652063616e6e6f7420626520656d70747960601b60448201526064016101a5565b60008151116110af5760405162461bcd60e51b81526004016101a590612219565b6000838152600360205260409020600401546001116110e05760405162461bcd60e51b81526004016101a590612250565b600083815260056020908152604080832033845290915290205460ff161561113e5760405162461bcd60e51b8152602060048201526011602482015270105b1c9958591e4818dbdb9d195cdd1959607a1b60448201526064016101a5565b61114c600180546001019055565b611154611a5d565b604081810184905260208083018481523360608501526001805485526000888152600684528481208651825290935292909120835181559051839282019061119c9082612309565b50604082015160028201906111b19082612309565b5060608201516003820180546001600160a01b0319166001600160a01b039092169190911790556080820151600482015560a082015180516111fd916005840191602090910190611b0f565b50505060008481526005602090815260408083203384528252808320805460ff1916600190811790915587845260038352908320600b0180549182018155835291200161124a8382612309565b506000848152600360205260408120600501805491611268836123df565b919050555050505050565b60008281526002602052604090205460ff166112a15760405162461bcd60e51b81526004016101a5906121f1565b600082815260046020908152604080832033845290915290205460ff16156112fb5760405162461bcd60e51b815260206004820152600d60248201526c105b1c9958591e481d9bdd1959609a1b60448201526064016101a5565b60008281526003602052604090206006015460ff16156113565760405162461bcd60e51b815260206004820152601660248201527520506f6c6c696e67206e6f7420617661696c61626c6560501b60448201526064016101a5565b6000828152600360205260409020600501546001106113b05760405162461bcd60e51b81526020600482015260166024820152754e6f7420656e6f75676820636f6e74657374616e747360501b60448201526064016101a5565b6000828152600360205260409020600701546113ca611a3e565b101580156113ef57506000828152600360205260409020600801546113ed611a3e565b105b61143b5760405162461bcd60e51b815260206004820152601960248201527f566f74696e67206d75737420626520696e2073657373696f6e0000000000000060448201526064016101a5565b6000828152600360205260408120600401805491611458836123df565b90915550506000828152600360209081526040808320600a0180546001810182559084528284200180546001600160a01b031916331790558483526006825280832084845290915281206004018054916114b1836123df565b9091555050600082815260066020908152604080832084845282528083206005018054600181810183559185528385200180546001600160a01b03191633908117909155868552600484528285208186529093529220805460ff19169092179091557f4d99b957a2bc29a30ebd96a7be8e68fe50a3c701db28a91436490b7d53870ca461153c611a3e565b60405190815260200160405180910390a25050565b611559611a5d565b6000838152600660209081526040808320858452825291829020825160c0810190935280548352600181018054919284019161159490612280565b80601f01602080910402602001604051908101604052809291908181526020018280546115c090612280565b801561160d5780601f106115e25761010080835404028352916020019161160d565b820191906000526020600020905b8154815290600101906020018083116115f057829003601f168201915b5050505050815260200160028201805461162690612280565b80601f016020809104026020016040519081016040528092919081815260200182805461165290612280565b801561169f5780601f106116745761010080835404028352916020019161169f565b820191906000526020600020905b81548152906001019060200180831161168257829003601f168201915b505050505081526020016003820160009054906101000a90046001600160a01b03166001600160a01b03166001600160a01b03168152602001600482015481526020016005820180548060200260200160405190810160405280929190818152602001828054801561173a57602002820191906000526020600020905b81546001600160a01b0316815260019091019060200180831161171c575b50505050508152505090505b92915050565b60008451116117955760405162461bcd60e51b81526020600482015260156024820152745469746c652063616e6e6f7420626520656d70747960581b60448201526064016101a5565b60008351116117e65760405162461bcd60e51b815260206004820152601b60248201527f4465736372697074696f6e2063616e6e6f7420626520656d707479000000000060448201526064016101a5565b60008551116118075760405162461bcd60e51b81526004016101a590612219565b600082116118615760405162461bcd60e51b815260206004820152602160248201527f53746172742064617465206d7573742062652067726561746572207468616e206044820152600360fc1b60648201526084016101a5565b8181116118c15760405162461bcd60e51b815260206004820152602860248201527f456e642064617465206d7573742062652067726561746572207468616e207374604482015267617274206461746560c01b60648201526084016101a5565b6118cf600080546001019055565b6118d7611a9c565b6000548152604081018590526060810184905260208101869052610100810183905261012081018290523360e082015261190f611a3e565b61014082015280516000908152600360209081526040909120825181559082015182919060018201906119429082612309565b50604082015160028201906119579082612309565b506060820151600382019061196c9082612309565b506080820151600482015560a0820151600582015560c082015160068201805460e08501516001600160a81b0319909116921515610100600160a81b031916929092176101006001600160a01b03909316830217905582015160078201556101208201516008820155610140820151600982015561016082015180516119fc91600a840191602090910190611b0f565b506101808201518051611a1991600b840191602090910190611b74565b505090516000908152600260205260409020805460ff19166001179055505050505050565b6000611a4c426103e861240e565b611a58906103e8612425565b905090565b6040518060c0016040528060008152602001606081526020016060815260200160006001600160a01b0316815260200160008152602001606081525090565b604051806101a0016040528060008152602001606081526020016060815260200160608152602001600081526020016000815260200160001515815260200160006001600160a01b0316815260200160008152602001600081526020016000815260200160608152602001606081525090565b828054828255906000526020600020908101928215611b64579160200282015b82811115611b6457825182546001600160a01b0319166001600160a01b03909116178255602090920191600190910190611b2f565b50611b70929150611bc6565b5090565b828054828255906000526020600020908101928215611bba579160200282015b82811115611bba5782518290611baa9082612309565b5091602001919060010190611b94565b50611b70929150611bdb565b5b80821115611b705760008155600101611bc7565b80821115611b70576000611bef8282611bf8565b50600101611bdb565b508054611c0490612280565b6000825580601f10611c14575050565b601f016020900490600052602060002090810190611c329190611bc6565b50565b634e487b7160e01b600052604160045260246000fd5b600082601f830112611c5c57600080fd5b813567ffffffffffffffff80821115611c7757611c77611c35565b604051601f8301601f19908116603f01168101908282118183101715611c9f57611c9f611c35565b81604052838152866020858801011115611cb857600080fd5b836020870160208301376000602085830101528094505050505092915050565b60008060008060008060c08789031215611cf157600080fd5b86359550602087013567ffffffffffffffff80821115611d1057600080fd5b611d1c8a838b01611c4b565b96506040890135915080821115611d3257600080fd5b611d3e8a838b01611c4b565b95506060890135915080821115611d5457600080fd5b50611d6189828a01611c4b565b9350506080870135915060a087013590509295509295509295565b600060208284031215611d8e57600080fd5b5035919050565b6000815180845260005b81811015611dbb57602081850181015186830182015201611d9f565b506000602082860101526020601f19601f83011685010191505092915050565b600081518084526020808501945080840160005b83811015611e145781516001600160a01b031687529582019590820190600101611def565b509495945050505050565b805182526000602082015160c06020850152611e3e60c0850182611d95565b905060408301518482036040860152611e578282611d95565b91505060018060a01b0360608401511660608501526080830151608085015260a083015184820360a0860152611e8d8282611ddb565b95945050505050565b6000602080830181845280855180835260408601915060408160051b870101925083870160005b82811015611eeb57603f19888603018452611ed9858351611e1f565b94509285019290850190600101611ebd565b5092979650505050505050565b600081518084526020808501808196508360051b8101915082860160005b85811015611f40578284038952611f2e848351611d95565b98850198935090840190600101611f16565b5091979650505050505050565b60006101a0825184526020830151816020860152611f6d82860182611d95565b91505060408301518482036040860152611f878282611d95565b91505060608301518482036060860152611fa18282611d95565b9150506080830151608085015260a083015160a085015260c0830151611fcb60c086018215159052565b5060e0830151611fe660e08601826001600160a01b03169052565b5061010083810151908501526101208084015190850152610140808401519085015261016080840151858303828701526120208382611ddb565b92505050610180808401518583038287015261203c8382611ef8565b9695505050505050565b6000602080830181845280855180835260408601915060408160051b870101925083870160005b82811015611eeb57603f19888603018452612089858351611f4d565b9450928501929085019060010161206d565b6020815260006120ae6020830184611f4d565b9392505050565b6000806000606084860312156120ca57600080fd5b83359250602084013567ffffffffffffffff808211156120e957600080fd5b6120f587838801611c4b565b9350604086013591508082111561210b57600080fd5b5061211886828701611c4b565b9150509250925092565b6000806040838503121561213557600080fd5b50508035926020909101359150565b6020815260006120ae6020830184611e1f565b600080600080600060a0868803121561216f57600080fd5b853567ffffffffffffffff8082111561218757600080fd5b61219389838a01611c4b565b965060208801359150808211156121a957600080fd5b6121b589838a01611c4b565b955060408801359150808211156121cb57600080fd5b506121d888828901611c4b565b9598949750949560608101359550608001359392505050565b6020808252600e908201526d141bdb1b081b9bdd08199bdd5b9960921b604082015260600190565b60208082526019908201527f496d6167652055524c2063616e6e6f7420626520656d70747900000000000000604082015260600190565b602080825260169082015275506f6c6c2068617320766f74657320616c726561647960501b604082015260600190565b600181811c9082168061229457607f821691505b6020821081036122b457634e487b7160e01b600052602260045260246000fd5b50919050565b601f82111561230457600081815260208120601f850160051c810160208610156122e15750805b601f850160051c820191505b81811015612300578281556001016122ed565b5050505b505050565b815167ffffffffffffffff81111561232357612323611c35565b612337816123318454612280565b846122ba565b602080601f83116001811461236c57600084156123545750858301515b600019600386901b1c1916600185901b178555612300565b600085815260208120601f198616915b8281101561239b5788860151825594840194600190910190840161237c565b50858210156123b95787850151600019600388901b60f8161c191681555b5050505050600190811b01905550565b634e487b7160e01b600052601160045260246000fd5b6000600182016123f1576123f16123c9565b5060010190565b634e487b7160e01b600052603260045260246000fd5b8082028115828204841417611746576117466123c9565b80820180821115611746576117466123c956fea2646970667358221220f2e647fd238c852b369123bd9f3df3e9134f592da1a2f1fba5049061cd723f7b64736f6c63430008110033","opcodes":"PUSH1 0x80 PUSH1 0x40 MSTORE CALLVALUE DUP1 ISZERO PUSH2 0x10 JUMPI PUSH1 0x0 DUP1 REVERT JUMPDEST POP PUSH2 0x246E DUP1 PUSH2 0x20 PUSH1 0x0 CODECOPY PUSH1 0x0 RETURN INVALID PUSH1 0x80 PUSH1 0x40 MSTORE CALLVALUE DUP1 ISZERO PUSH2 0x10 JUMPI PUSH1 0x0 DUP1 REVERT JUMPDEST POP PUSH1 0x4 CALLDATASIZE LT PUSH2 0x93 JUMPI PUSH1 0x0 CALLDATALOAD PUSH1 0xE0 SHR DUP1 PUSH4 0x1F35B51D GT PUSH2 0x66 JUMPI DUP1 PUSH4 0x1F35B51D EQ PUSH2 0x10B JUMPI DUP1 PUSH4 0x66DD51DC EQ PUSH2 0x11E JUMPI DUP1 PUSH4 0xB384ABEF EQ PUSH2 0x131 JUMPI DUP1 PUSH4 0xD3436411 EQ PUSH2 0x144 JUMPI DUP1 PUSH4 0xF0D0BC45 EQ PUSH2 0x164 JUMPI PUSH1 0x0 DUP1 REVERT JUMPDEST DUP1 PUSH4 0x29433F0 EQ PUSH2 0x98 JUMPI DUP1 PUSH4 0x559DD65 EQ PUSH2 0xAD JUMPI DUP1 PUSH4 0x120FE89B EQ PUSH2 0xD6 JUMPI DUP1 PUSH4 0x1A8CBCAA EQ PUSH2 0xEB JUMPI JUMPDEST PUSH1 0x0 DUP1 REVERT JUMPDEST PUSH2 0xAB PUSH2 0xA6 CALLDATASIZE PUSH1 0x4 PUSH2 0x1CD8 JUMP JUMPDEST PUSH2 0x177 JUMP JUMPDEST STOP JUMPDEST PUSH2 0xC0 PUSH2 0xBB CALLDATASIZE PUSH1 0x4 PUSH2 0x1D7C JUMP JUMPDEST PUSH2 0x42F JUMP JUMPDEST PUSH1 0x40 MLOAD PUSH2 0xCD SWAP2 SWAP1 PUSH2 0x1E96 JUMP JUMPDEST PUSH1 0x40 MLOAD DUP1 SWAP2 SUB SWAP1 RETURN JUMPDEST PUSH2 0xDE PUSH2 0x735 JUMP JUMPDEST PUSH1 0x40 MLOAD PUSH2 0xCD SWAP2 SWAP1 PUSH2 0x2046 JUMP JUMPDEST PUSH2 0xFE PUSH2 0xF9 CALLDATASIZE PUSH1 0x4 PUSH2 0x1D7C JUMP JUMPDEST PUSH2 0xBB5 JUMP JUMPDEST PUSH1 0x40 MLOAD PUSH2 0xCD SWAP2 SWAP1 PUSH2 0x209B JUMP JUMPDEST PUSH2 0xAB PUSH2 0x119 CALLDATASIZE PUSH1 0x4 PUSH2 0x1D7C JUMP JUMPDEST PUSH2 0xF37 JUMP JUMPDEST PUSH2 0xAB PUSH2 0x12C CALLDATASIZE PUSH1 0x4 PUSH2 0x20B5 JUMP JUMPDEST PUSH2 0x1018 JUMP JUMPDEST PUSH2 0xAB PUSH2 0x13F CALLDATASIZE PUSH1 0x4 PUSH2 0x2122 JUMP JUMPDEST PUSH2 0x1273 JUMP JUMPDEST PUSH2 0x157 PUSH2 0x152 CALLDATASIZE PUSH1 0x4 PUSH2 0x2122 JUMP JUMPDEST PUSH2 0x1551 JUMP JUMPDEST PUSH1 0x40 MLOAD PUSH2 0xCD SWAP2 SWAP1 PUSH2 0x2144 JUMP JUMPDEST PUSH2 0xAB PUSH2 0x172 CALLDATASIZE PUSH1 0x4 PUSH2 0x2157 JUMP JUMPDEST PUSH2 0x174C JUMP JUMPDEST PUSH1 0x0 DUP7 DUP2 MSTORE PUSH1 0x2 PUSH1 0x20 MSTORE PUSH1 0x40 SWAP1 KECCAK256 SLOAD PUSH1 0xFF AND PUSH2 0x1AE JUMPI PUSH1 0x40 MLOAD PUSH3 0x461BCD PUSH1 0xE5 SHL DUP2 MSTORE PUSH1 0x4 ADD PUSH2 0x1A5 SWAP1 PUSH2 0x21F1 JUMP JUMPDEST PUSH1 0x40 MLOAD DUP1 SWAP2 SUB SWAP1 REVERT JUMPDEST PUSH1 0x0 DUP7 DUP2 MSTORE PUSH1 0x3 PUSH1 0x20 MSTORE PUSH1 0x40 SWAP1 KECCAK256 PUSH1 0x6 ADD SLOAD PUSH2 0x100 SWAP1 DIV PUSH1 0x1 PUSH1 0x1 PUSH1 0xA0 SHL SUB AND CALLER EQ PUSH2 0x212 JUMPI PUSH1 0x40 MLOAD PUSH3 0x461BCD PUSH1 0xE5 SHL DUP2 MSTORE PUSH1 0x20 PUSH1 0x4 DUP3 ADD MSTORE PUSH1 0x13 PUSH1 0x24 DUP3 ADD MSTORE PUSH19 0x556E617574686F72697A656420656E74697479 PUSH1 0x68 SHL PUSH1 0x44 DUP3 ADD MSTORE PUSH1 0x64 ADD PUSH2 0x1A5 JUMP JUMPDEST PUSH1 0x0 DUP5 MLOAD GT PUSH2 0x25B JUMPI PUSH1 0x40 MLOAD PUSH3 0x461BCD PUSH1 0xE5 SHL DUP2 MSTORE PUSH1 0x20 PUSH1 0x4 DUP3 ADD MSTORE PUSH1 0x15 PUSH1 0x24 DUP3 ADD MSTORE PUSH21 0x5469746C652063616E6E6F7420626520656D707479 PUSH1 0x58 SHL PUSH1 0x44 DUP3 ADD MSTORE PUSH1 0x64 ADD PUSH2 0x1A5 JUMP JUMPDEST PUSH1 0x0 DUP4 MLOAD GT PUSH2 0x2AC JUMPI PUSH1 0x40 MLOAD PUSH3 0x461BCD PUSH1 0xE5 SHL DUP2 MSTORE PUSH1 0x20 PUSH1 0x4 DUP3 ADD MSTORE PUSH1 0x1B PUSH1 0x24 DUP3 ADD MSTORE PUSH32 0x4465736372697074696F6E2063616E6E6F7420626520656D7074790000000000 PUSH1 0x44 DUP3 ADD MSTORE PUSH1 0x64 ADD PUSH2 0x1A5 JUMP JUMPDEST PUSH1 0x0 DUP6 MLOAD GT PUSH2 0x2CD JUMPI PUSH1 0x40 MLOAD PUSH3 0x461BCD PUSH1 0xE5 SHL DUP2 MSTORE PUSH1 0x4 ADD PUSH2 0x1A5 SWAP1 PUSH2 0x2219 JUMP JUMPDEST PUSH1 0x0 DUP7 DUP2 MSTORE PUSH1 0x3 PUSH1 0x20 MSTORE PUSH1 0x40 SWAP1 KECCAK256 PUSH1 0x6 ADD SLOAD PUSH1 0xFF AND ISZERO PUSH2 0x32F JUMPI PUSH1 0x40 MLOAD PUSH3 0x461BCD PUSH1 0xE5 SHL DUP2 MSTORE PUSH1 0x20 PUSH1 0x4 DUP3 ADD MSTORE PUSH1 0x17 PUSH1 0x24 DUP3 ADD MSTORE PUSH32 0x506F6C6C696E6720616C72656164792064656C65746564000000000000000000 PUSH1 0x44 DUP3 ADD MSTORE PUSH1 0x64 ADD PUSH2 0x1A5 JUMP JUMPDEST PUSH1 0x0 DUP7 DUP2 MSTORE PUSH1 0x3 PUSH1 0x20 MSTORE PUSH1 0x40 SWAP1 KECCAK256 PUSH1 0x4 ADD SLOAD PUSH1 0x1 GT PUSH2 0x360 JUMPI PUSH1 0x40 MLOAD PUSH3 0x461BCD PUSH1 0xE5 SHL DUP2 MSTORE PUSH1 0x4 ADD PUSH2 0x1A5 SWAP1 PUSH2 0x2250 JUMP JUMPDEST DUP2 DUP2 GT PUSH2 0x3C4 JUMPI PUSH1 0x40 MLOAD PUSH3 0x461BCD PUSH1 0xE5 SHL DUP2 MSTORE PUSH1 0x20 PUSH1 0x4 DUP3 ADD MSTORE PUSH1 0x2C PUSH1 0x24 DUP3 ADD MSTORE PUSH32 0x456E642064617465206D7573742062652067726561746572207468616E207468 PUSH1 0x44 DUP3 ADD MSTORE PUSH12 0x652073746172742064617465 PUSH1 0xA0 SHL PUSH1 0x64 DUP3 ADD MSTORE PUSH1 0x84 ADD PUSH2 0x1A5 JUMP JUMPDEST PUSH1 0x0 DUP7 DUP2 MSTORE PUSH1 0x3 PUSH1 0x20 MSTORE PUSH1 0x40 SWAP1 KECCAK256 PUSH1 0x2 ADD PUSH2 0x3DF DUP6 DUP3 PUSH2 0x2309 JUMP JUMPDEST POP PUSH1 0x0 DUP7 DUP2 MSTORE PUSH1 0x3 PUSH1 0x20 DUP2 SWAP1 MSTORE PUSH1 0x40 SWAP1 SWAP2 KECCAK256 ADD PUSH2 0x3FC DUP5 DUP3 PUSH2 0x2309 JUMP JUMPDEST POP PUSH1 0x0 DUP7 DUP2 MSTORE PUSH1 0x3 PUSH1 0x20 MSTORE PUSH1 0x40 SWAP1 KECCAK256 PUSH1 0x7 DUP2 ADD DUP4 SWAP1 SSTORE PUSH1 0x8 DUP2 ADD DUP3 SWAP1 SSTORE PUSH1 0x1 ADD PUSH2 0x426 DUP7 DUP3 PUSH2 0x2309 JUMP JUMPDEST POP POP POP POP POP POP POP JUMP JUMPDEST PUSH1 0x60 PUSH1 0x0 PUSH1 0x1 JUMPDEST PUSH1 0x0 SLOAD DUP2 LT ISZERO PUSH2 0x481 JUMPI PUSH1 0x0 DUP5 DUP2 MSTORE PUSH1 0x6 PUSH1 0x20 SWAP1 DUP2 MSTORE PUSH1 0x40 DUP1 DUP4 KECCAK256 DUP5 DUP5 MSTORE SWAP1 SWAP2 MSTORE SWAP1 KECCAK256 SLOAD PUSH1 0x1 SUB PUSH2 0x46F JUMPI DUP2 PUSH2 0x46B DUP2 PUSH2 0x23DF JUMP JUMPDEST SWAP3 POP POP JUMPDEST DUP1 PUSH2 0x479 DUP2 PUSH2 0x23DF JUMP JUMPDEST SWAP2 POP POP PUSH2 0x436 JUMP JUMPDEST POP DUP1 PUSH8 0xFFFFFFFFFFFFFFFF DUP2 GT ISZERO PUSH2 0x49B JUMPI PUSH2 0x49B PUSH2 0x1C35 JUMP JUMPDEST PUSH1 0x40 MLOAD SWAP1 DUP1 DUP3 MSTORE DUP1 PUSH1 0x20 MUL PUSH1 0x20 ADD DUP3 ADD PUSH1 0x40 MSTORE DUP1 ISZERO PUSH2 0x4D4 JUMPI DUP2 PUSH1 0x20 ADD JUMPDEST PUSH2 0x4C1 PUSH2 0x1A5D JUMP JUMPDEST DUP2 MSTORE PUSH1 0x20 ADD SWAP1 PUSH1 0x1 SWAP1 SUB SWAP1 DUP2 PUSH2 0x4B9 JUMPI SWAP1 POP JUMPDEST POP SWAP2 POP PUSH1 0x0 PUSH1 0x1 JUMPDEST PUSH1 0x0 SLOAD DUP2 LT ISZERO PUSH2 0x72D JUMPI PUSH1 0x0 DUP6 DUP2 MSTORE PUSH1 0x6 PUSH1 0x20 SWAP1 DUP2 MSTORE PUSH1 0x40 DUP1 DUP4 KECCAK256 DUP5 DUP5 MSTORE SWAP1 SWAP2 MSTORE SWAP1 KECCAK256 SLOAD PUSH1 0x1 SUB PUSH2 0x71B JUMPI PUSH1 0x0 DUP6 DUP2 MSTORE PUSH1 0x6 PUSH1 0x20 SWAP1 DUP2 MSTORE PUSH1 0x40 DUP1 DUP4 KECCAK256 DUP5 DUP5 MSTORE DUP3 MSTORE SWAP2 DUP3 SWAP1 KECCAK256 DUP3 MLOAD PUSH1 0xC0 DUP2 ADD SWAP1 SWAP4 MSTORE DUP1 SLOAD DUP4 MSTORE PUSH1 0x1 DUP2 ADD DUP1 SLOAD SWAP2 SWAP3 DUP5 ADD SWAP2 PUSH2 0x542 SWAP1 PUSH2 0x2280 JUMP JUMPDEST DUP1 PUSH1 0x1F ADD PUSH1 0x20 DUP1 SWAP2 DIV MUL PUSH1 0x20 ADD PUSH1 0x40 MLOAD SWAP1 DUP2 ADD PUSH1 0x40 MSTORE DUP1 SWAP3 SWAP2 SWAP1 DUP2 DUP2 MSTORE PUSH1 0x20 ADD DUP3 DUP1 SLOAD PUSH2 0x56E SWAP1 PUSH2 0x2280 JUMP JUMPDEST DUP1 ISZERO PUSH2 0x5BB JUMPI DUP1 PUSH1 0x1F LT PUSH2 0x590 JUMPI PUSH2 0x100 DUP1 DUP4 SLOAD DIV MUL DUP4 MSTORE SWAP2 PUSH1 0x20 ADD SWAP2 PUSH2 0x5BB JUMP JUMPDEST DUP3 ADD SWAP2 SWAP1 PUSH1 0x0 MSTORE PUSH1 0x20 PUSH1 0x0 KECCAK256 SWAP1 JUMPDEST DUP2 SLOAD DUP2 MSTORE SWAP1 PUSH1 0x1 ADD SWAP1 PUSH1 0x20 ADD DUP1 DUP4 GT PUSH2 0x59E JUMPI DUP3 SWAP1 SUB PUSH1 0x1F AND DUP3 ADD SWAP2 JUMPDEST POP POP POP POP POP DUP2 MSTORE PUSH1 0x20 ADD PUSH1 0x2 DUP3 ADD DUP1 SLOAD PUSH2 0x5D4 SWAP1 PUSH2 0x2280 JUMP JUMPDEST DUP1 PUSH1 0x1F ADD PUSH1 0x20 DUP1 SWAP2 DIV MUL PUSH1 0x20 ADD PUSH1 0x40 MLOAD SWAP1 DUP2 ADD PUSH1 0x40 MSTORE DUP1 SWAP3 SWAP2 SWAP1 DUP2 DUP2 MSTORE PUSH1 0x20 ADD DUP3 DUP1 SLOAD PUSH2 0x600 SWAP1 PUSH2 0x2280 JUMP JUMPDEST DUP1 ISZERO PUSH2 0x64D JUMPI DUP1 PUSH1 0x1F LT PUSH2 0x622 JUMPI PUSH2 0x100 DUP1 DUP4 SLOAD DIV MUL DUP4 MSTORE SWAP2 PUSH1 0x20 ADD SWAP2 PUSH2 0x64D JUMP JUMPDEST DUP3 ADD SWAP2 SWAP1 PUSH1 0x0 MSTORE PUSH1 0x20 PUSH1 0x0 KECCAK256 SWAP1 JUMPDEST DUP2 SLOAD DUP2 MSTORE SWAP1 PUSH1 0x1 ADD SWAP1 PUSH1 0x20 ADD DUP1 DUP4 GT PUSH2 0x630 JUMPI DUP3 SWAP1 SUB PUSH1 0x1F AND DUP3 ADD SWAP2 JUMPDEST POP POP POP POP POP DUP2 MSTORE PUSH1 0x20 ADD PUSH1 0x3 DUP3 ADD PUSH1 0x0 SWAP1 SLOAD SWAP1 PUSH2 0x100 EXP SWAP1 DIV PUSH1 0x1 PUSH1 0x1 PUSH1 0xA0 SHL SUB AND PUSH1 0x1 PUSH1 0x1 PUSH1 0xA0 SHL SUB AND PUSH1 0x1 PUSH1 0x1 PUSH1 0xA0 SHL SUB AND DUP2 MSTORE PUSH1 0x20 ADD PUSH1 0x4 DUP3 ADD SLOAD DUP2 MSTORE PUSH1 0x20 ADD PUSH1 0x5 DUP3 ADD DUP1 SLOAD DUP1 PUSH1 0x20 MUL PUSH1 0x20 ADD PUSH1 0x40 MLOAD SWAP1 DUP2 ADD PUSH1 0x40 MSTORE DUP1 SWAP3 SWAP2 SWAP1 DUP2 DUP2 MSTORE PUSH1 0x20 ADD DUP3 DUP1 SLOAD DUP1 ISZERO PUSH2 0x6E8 JUMPI PUSH1 0x20 MUL DUP3 ADD SWAP2 SWAP1 PUSH1 0x0 MSTORE PUSH1 0x20 PUSH1 0x0 KECCAK256 SWAP1 JUMPDEST DUP2 SLOAD PUSH1 0x1 PUSH1 0x1 PUSH1 0xA0 SHL SUB AND DUP2 MSTORE PUSH1 0x1 SWAP1 SWAP2 ADD SWAP1 PUSH1 0x20 ADD DUP1 DUP4 GT PUSH2 0x6CA JUMPI JUMPDEST POP POP POP POP POP DUP2 MSTORE POP POP DUP5 DUP4 DUP1 PUSH2 0x6FD SWAP1 PUSH2 0x23DF JUMP JUMPDEST SWAP5 POP DUP2 MLOAD DUP2 LT PUSH2 0x70F JUMPI PUSH2 0x70F PUSH2 0x23F8 JUMP JUMPDEST PUSH1 0x20 MUL PUSH1 0x20 ADD ADD DUP2 SWAP1 MSTORE POP JUMPDEST DUP1 PUSH2 0x725 DUP2 PUSH2 0x23DF JUMP JUMPDEST SWAP2 POP POP PUSH2 0x4DC JUMP JUMPDEST POP POP POP SWAP2 SWAP1 POP JUMP JUMPDEST PUSH1 0x60 PUSH1 0x0 PUSH1 0x1 JUMPDEST PUSH1 0x0 SLOAD DUP2 LT ISZERO PUSH2 0x77F JUMPI PUSH1 0x0 DUP2 DUP2 MSTORE PUSH1 0x3 PUSH1 0x20 MSTORE PUSH1 0x40 SWAP1 KECCAK256 PUSH1 0x6 ADD SLOAD PUSH1 0xFF AND PUSH2 0x76D JUMPI DUP2 PUSH2 0x769 DUP2 PUSH2 0x23DF JUMP JUMPDEST SWAP3 POP POP JUMPDEST DUP1 PUSH2 0x777 DUP2 PUSH2 0x23DF JUMP JUMPDEST SWAP2 POP POP PUSH2 0x73C JUMP JUMPDEST POP DUP1 PUSH8 0xFFFFFFFFFFFFFFFF DUP2 GT ISZERO PUSH2 0x799 JUMPI PUSH2 0x799 PUSH2 0x1C35 JUMP JUMPDEST PUSH1 0x40 MLOAD SWAP1 DUP1 DUP3 MSTORE DUP1 PUSH1 0x20 MUL PUSH1 0x20 ADD DUP3 ADD PUSH1 0x40 MSTORE DUP1 ISZERO PUSH2 0x7D2 JUMPI DUP2 PUSH1 0x20 ADD JUMPDEST PUSH2 0x7BF PUSH2 0x1A9C JUMP JUMPDEST DUP2 MSTORE PUSH1 0x20 ADD SWAP1 PUSH1 0x1 SWAP1 SUB SWAP1 DUP2 PUSH2 0x7B7 JUMPI SWAP1 POP JUMPDEST POP SWAP2 POP PUSH1 0x0 PUSH1 0x1 JUMPDEST PUSH1 0x0 SLOAD DUP2 LT ISZERO PUSH2 0xBAF JUMPI PUSH1 0x0 DUP2 DUP2 MSTORE PUSH1 0x3 PUSH1 0x20 MSTORE PUSH1 0x40 SWAP1 KECCAK256 PUSH1 0x6 ADD SLOAD PUSH1 0xFF AND PUSH2 0xB9D JUMPI PUSH1 0x3 PUSH1 0x0 DUP3 DUP2 MSTORE PUSH1 0x20 ADD SWAP1 DUP2 MSTORE PUSH1 0x20 ADD PUSH1 0x0 KECCAK256 PUSH1 0x40 MLOAD DUP1 PUSH2 0x1A0 ADD PUSH1 0x40 MSTORE SWAP1 DUP2 PUSH1 0x0 DUP3 ADD SLOAD DUP2 MSTORE PUSH1 0x20 ADD PUSH1 0x1 DUP3 ADD DUP1 SLOAD PUSH2 0x836 SWAP1 PUSH2 0x2280 JUMP JUMPDEST DUP1 PUSH1 0x1F ADD PUSH1 0x20 DUP1 SWAP2 DIV MUL PUSH1 0x20 ADD PUSH1 0x40 MLOAD SWAP1 DUP2 ADD PUSH1 0x40 MSTORE DUP1 SWAP3 SWAP2 SWAP1 DUP2 DUP2 MSTORE PUSH1 0x20 ADD DUP3 DUP1 SLOAD PUSH2 0x862 SWAP1 PUSH2 0x2280 JUMP JUMPDEST DUP1 ISZERO PUSH2 0x8AF JUMPI DUP1 PUSH1 0x1F LT PUSH2 0x884 JUMPI PUSH2 0x100 DUP1 DUP4 SLOAD DIV MUL DUP4 MSTORE SWAP2 PUSH1 0x20 ADD SWAP2 PUSH2 0x8AF JUMP JUMPDEST DUP3 ADD SWAP2 SWAP1 PUSH1 0x0 MSTORE PUSH1 0x20 PUSH1 0x0 KECCAK256 SWAP1 JUMPDEST DUP2 SLOAD DUP2 MSTORE SWAP1 PUSH1 0x1 ADD SWAP1 PUSH1 0x20 ADD DUP1 DUP4 GT PUSH2 0x892 JUMPI DUP3 SWAP1 SUB PUSH1 0x1F AND DUP3 ADD SWAP2 JUMPDEST POP POP POP POP POP DUP2 MSTORE PUSH1 0x20 ADD PUSH1 0x2 DUP3 ADD DUP1 SLOAD PUSH2 0x8C8 SWAP1 PUSH2 0x2280 JUMP JUMPDEST DUP1 PUSH1 0x1F ADD PUSH1 0x20 DUP1 SWAP2 DIV MUL PUSH1 0x20 ADD PUSH1 0x40 MLOAD SWAP1 DUP2 ADD PUSH1 0x40 MSTORE DUP1 SWAP3 SWAP2 SWAP1 DUP2 DUP2 MSTORE PUSH1 0x20 ADD DUP3 DUP1 SLOAD PUSH2 0x8F4 SWAP1 PUSH2 0x2280 JUMP JUMPDEST DUP1 ISZERO PUSH2 0x941 JUMPI DUP1 PUSH1 0x1F LT PUSH2 0x916 JUMPI PUSH2 0x100 DUP1 DUP4 SLOAD DIV MUL DUP4 MSTORE SWAP2 PUSH1 0x20 ADD SWAP2 PUSH2 0x941 JUMP JUMPDEST DUP3 ADD SWAP2 SWAP1 PUSH1 0x0 MSTORE PUSH1 0x20 PUSH1 0x0 KECCAK256 SWAP1 JUMPDEST DUP2 SLOAD DUP2 MSTORE SWAP1 PUSH1 0x1 ADD SWAP1 PUSH1 0x20 ADD DUP1 DUP4 GT PUSH2 0x924 JUMPI DUP3 SWAP1 SUB PUSH1 0x1F AND DUP3 ADD SWAP2 JUMPDEST POP POP POP POP POP DUP2 MSTORE PUSH1 0x20 ADD PUSH1 0x3 DUP3 ADD DUP1 SLOAD PUSH2 0x95A SWAP1 PUSH2 0x2280 JUMP JUMPDEST DUP1 PUSH1 0x1F ADD PUSH1 0x20 DUP1 SWAP2 DIV MUL PUSH1 0x20 ADD PUSH1 0x40 MLOAD SWAP1 DUP2 ADD PUSH1 0x40 MSTORE DUP1 SWAP3 SWAP2 SWAP1 DUP2 DUP2 MSTORE PUSH1 0x20 ADD DUP3 DUP1 SLOAD PUSH2 0x986 SWAP1 PUSH2 0x2280 JUMP JUMPDEST DUP1 ISZERO PUSH2 0x9D3 JUMPI DUP1 PUSH1 0x1F LT PUSH2 0x9A8 JUMPI PUSH2 0x100 DUP1 DUP4 SLOAD DIV MUL DUP4 MSTORE SWAP2 PUSH1 0x20 ADD SWAP2 PUSH2 0x9D3 JUMP JUMPDEST DUP3 ADD SWAP2 SWAP1 PUSH1 0x0 MSTORE PUSH1 0x20 PUSH1 0x0 KECCAK256 SWAP1 JUMPDEST DUP2 SLOAD DUP2 MSTORE SWAP1 PUSH1 0x1 ADD SWAP1 PUSH1 0x20 ADD DUP1 DUP4 GT PUSH2 0x9B6 JUMPI DUP3 SWAP1 SUB PUSH1 0x1F AND DUP3 ADD SWAP2 JUMPDEST POP POP POP SWAP2 DUP4 MSTORE POP POP PUSH1 0x4 DUP3 ADD SLOAD PUSH1 0x20 DUP1 DUP4 ADD SWAP2 SWAP1 SWAP2 MSTORE PUSH1 0x5 DUP4 ADD SLOAD PUSH1 0x40 DUP1 DUP5 ADD SWAP2 SWAP1 SWAP2 MSTORE PUSH1 0x6 DUP5 ADD SLOAD PUSH1 0xFF DUP2 AND ISZERO ISZERO PUSH1 0x60 DUP6 ADD MSTORE PUSH1 0x1 PUSH1 0x1 PUSH1 0xA0 SHL SUB PUSH2 0x100 SWAP2 DUP3 SWAP1 DIV AND PUSH1 0x80 DUP6 ADD MSTORE PUSH1 0x7 DUP6 ADD SLOAD PUSH1 0xA0 DUP6 ADD MSTORE PUSH1 0x8 DUP6 ADD SLOAD PUSH1 0xC0 DUP6 ADD MSTORE PUSH1 0x9 DUP6 ADD SLOAD PUSH1 0xE0 DUP6 ADD MSTORE PUSH1 0xA DUP6 ADD DUP1 SLOAD DUP4 MLOAD DUP2 DUP7 MUL DUP2 ADD DUP7 ADD SWAP1 SWAP5 MSTORE DUP1 DUP5 MSTORE SWAP2 SWAP1 SWAP5 ADD SWAP4 SWAP2 SWAP3 DUP4 ADD DUP3 DUP3 DUP1 ISZERO PUSH2 0xA8F JUMPI PUSH1 0x20 MUL DUP3 ADD SWAP2 SWAP1 PUSH1 0x0 MSTORE PUSH1 0x20 PUSH1 0x0 KECCAK256 SWAP1 JUMPDEST DUP2 SLOAD PUSH1 0x1 PUSH1 0x1 PUSH1 0xA0 SHL SUB AND DUP2 MSTORE PUSH1 0x1 SWAP1 SWAP2 ADD SWAP1 PUSH1 0x20 ADD DUP1 DUP4 GT PUSH2 0xA71 JUMPI JUMPDEST POP POP POP POP POP DUP2 MSTORE PUSH1 0x20 ADD PUSH1 0xB DUP3 ADD DUP1 SLOAD DUP1 PUSH1 0x20 MUL PUSH1 0x20 ADD PUSH1 0x40 MLOAD SWAP1 DUP2 ADD PUSH1 0x40 MSTORE DUP1 SWAP3 SWAP2 SWAP1 DUP2 DUP2 MSTORE PUSH1 0x20 ADD PUSH1 0x0 SWAP1 JUMPDEST DUP3 DUP3 LT ISZERO PUSH2 0xB69 JUMPI DUP4 DUP3 SWAP1 PUSH1 0x0 MSTORE PUSH1 0x20 PUSH1 0x0 KECCAK256 ADD DUP1 SLOAD PUSH2 0xADC SWAP1 PUSH2 0x2280 JUMP JUMPDEST DUP1 PUSH1 0x1F ADD PUSH1 0x20 DUP1 SWAP2 DIV MUL PUSH1 0x20 ADD PUSH1 0x40 MLOAD SWAP1 DUP2 ADD PUSH1 0x40 MSTORE DUP1 SWAP3 SWAP2 SWAP1 DUP2 DUP2 MSTORE PUSH1 0x20 ADD DUP3 DUP1 SLOAD PUSH2 0xB08 SWAP1 PUSH2 0x2280 JUMP JUMPDEST DUP1 ISZERO PUSH2 0xB55 JUMPI DUP1 PUSH1 0x1F LT PUSH2 0xB2A JUMPI PUSH2 0x100 DUP1 DUP4 SLOAD DIV MUL DUP4 MSTORE SWAP2 PUSH1 0x20 ADD SWAP2 PUSH2 0xB55 JUMP JUMPDEST DUP3 ADD SWAP2 SWAP1 PUSH1 0x0 MSTORE PUSH1 0x20 PUSH1 0x0 KECCAK256 SWAP1 JUMPDEST DUP2 SLOAD DUP2 MSTORE SWAP1 PUSH1 0x1 ADD SWAP1 PUSH1 0x20 ADD DUP1 DUP4 GT PUSH2 0xB38 JUMPI DUP3 SWAP1 SUB PUSH1 0x1F AND DUP3 ADD SWAP2 JUMPDEST POP POP POP POP POP DUP2 MSTORE PUSH1 0x20 ADD SWAP1 PUSH1 0x1 ADD SWAP1 PUSH2 0xABD JUMP JUMPDEST POP POP POP POP DUP2 MSTORE POP POP DUP5 DUP4 DUP2 MLOAD DUP2 LT PUSH2 0xB83 JUMPI PUSH2 0xB83 PUSH2 0x23F8 JUMP JUMPDEST PUSH1 0x20 MUL PUSH1 0x20 ADD ADD DUP2 SWAP1 MSTORE POP DUP2 DUP1 PUSH2 0xB99 SWAP1 PUSH2 0x23DF JUMP JUMPDEST SWAP3 POP POP JUMPDEST DUP1 PUSH2 0xBA7 DUP2 PUSH2 0x23DF JUMP JUMPDEST SWAP2 POP POP PUSH2 0x7DA JUMP JUMPDEST POP POP POP SWAP1 JUMP JUMPDEST PUSH2 0xBBD PUSH2 0x1A9C JUMP JUMPDEST PUSH1 0x3 PUSH1 0x0 DUP4 DUP2 MSTORE PUSH1 0x20 ADD SWAP1 DUP2 MSTORE PUSH1 0x20 ADD PUSH1 0x0 KECCAK256 PUSH1 0x40 MLOAD DUP1 PUSH2 0x1A0 ADD PUSH1 0x40 MSTORE SWAP1 DUP2 PUSH1 0x0 DUP3 ADD SLOAD DUP2 MSTORE PUSH1 0x20 ADD PUSH1 0x1 DUP3 ADD DUP1 SLOAD PUSH2 0xBF6 SWAP1 PUSH2 0x2280 JUMP JUMPDEST DUP1 PUSH1 0x1F ADD PUSH1 0x20 DUP1 SWAP2 DIV MUL PUSH1 0x20 ADD PUSH1 0x40 MLOAD SWAP1 DUP2 ADD PUSH1 0x40 MSTORE DUP1 SWAP3 SWAP2 SWAP1 DUP2 DUP2 MSTORE PUSH1 0x20 ADD DUP3 DUP1 SLOAD PUSH2 0xC22 SWAP1 PUSH2 0x2280 JUMP JUMPDEST DUP1 ISZERO PUSH2 0xC6F JUMPI DUP1 PUSH1 0x1F LT PUSH2 0xC44 JUMPI PUSH2 0x100 DUP1 DUP4 SLOAD DIV MUL DUP4 MSTORE SWAP2 PUSH1 0x20 ADD SWAP2 PUSH2 0xC6F JUMP JUMPDEST DUP3 ADD SWAP2 SWAP1 PUSH1 0x0 MSTORE PUSH1 0x20 PUSH1 0x0 KECCAK256 SWAP1 JUMPDEST DUP2 SLOAD DUP2 MSTORE SWAP1 PUSH1 0x1 ADD SWAP1 PUSH1 0x20 ADD DUP1 DUP4 GT PUSH2 0xC52 JUMPI DUP3 SWAP1 SUB PUSH1 0x1F AND DUP3 ADD SWAP2 JUMPDEST POP POP POP POP POP DUP2 MSTORE PUSH1 0x20 ADD PUSH1 0x2 DUP3 ADD DUP1 SLOAD PUSH2 0xC88 SWAP1 PUSH2 0x2280 JUMP JUMPDEST DUP1 PUSH1 0x1F ADD PUSH1 0x20 DUP1 SWAP2 DIV MUL PUSH1 0x20 ADD PUSH1 0x40 MLOAD SWAP1 DUP2 ADD PUSH1 0x40 MSTORE DUP1 SWAP3 SWAP2 SWAP1 DUP2 DUP2 MSTORE PUSH1 0x20 ADD DUP3 DUP1 SLOAD PUSH2 0xCB4 SWAP1 PUSH2 0x2280 JUMP JUMPDEST DUP1 ISZERO PUSH2 0xD01 JUMPI DUP1 PUSH1 0x1F LT PUSH2 0xCD6 JUMPI PUSH2 0x100 DUP1 DUP4 SLOAD DIV MUL DUP4 MSTORE SWAP2 PUSH1 0x20 ADD SWAP2 PUSH2 0xD01 JUMP JUMPDEST DUP3 ADD SWAP2 SWAP1 PUSH1 0x0 MSTORE PUSH1 0x20 PUSH1 0x0 KECCAK256 SWAP1 JUMPDEST DUP2 SLOAD DUP2 MSTORE SWAP1 PUSH1 0x1 ADD SWAP1 PUSH1 0x20 ADD DUP1 DUP4 GT PUSH2 0xCE4 JUMPI DUP3 SWAP1 SUB PUSH1 0x1F AND DUP3 ADD SWAP2 JUMPDEST POP POP POP POP POP DUP2 MSTORE PUSH1 0x20 ADD PUSH1 0x3 DUP3 ADD DUP1 SLOAD PUSH2 0xD1A SWAP1 PUSH2 0x2280 JUMP JUMPDEST DUP1 PUSH1 0x1F ADD PUSH1 0x20 DUP1 SWAP2 DIV MUL PUSH1 0x20 ADD PUSH1 0x40 MLOAD SWAP1 DUP2 ADD PUSH1 0x40 MSTORE DUP1 SWAP3 SWAP2 SWAP1 DUP2 DUP2 MSTORE PUSH1 0x20 ADD DUP3 DUP1 SLOAD PUSH2 0xD46 SWAP1 PUSH2 0x2280 JUMP JUMPDEST DUP1 ISZERO PUSH2 0xD93 JUMPI DUP1 PUSH1 0x1F LT PUSH2 0xD68 JUMPI PUSH2 0x100 DUP1 DUP4 SLOAD DIV MUL DUP4 MSTORE SWAP2 PUSH1 0x20 ADD SWAP2 PUSH2 0xD93 JUMP JUMPDEST DUP3 ADD SWAP2 SWAP1 PUSH1 0x0 MSTORE PUSH1 0x20 PUSH1 0x0 KECCAK256 SWAP1 JUMPDEST DUP2 SLOAD DUP2 MSTORE SWAP1 PUSH1 0x1 ADD SWAP1 PUSH1 0x20 ADD DUP1 DUP4 GT PUSH2 0xD76 JUMPI DUP3 SWAP1 SUB PUSH1 0x1F AND DUP3 ADD SWAP2 JUMPDEST POP POP POP SWAP2 DUP4 MSTORE POP POP PUSH1 0x4 DUP3 ADD SLOAD PUSH1 0x20 DUP1 DUP4 ADD SWAP2 SWAP1 SWAP2 MSTORE PUSH1 0x5 DUP4 ADD SLOAD PUSH1 0x40 DUP1 DUP5 ADD SWAP2 SWAP1 SWAP2 MSTORE PUSH1 0x6 DUP5 ADD SLOAD PUSH1 0xFF DUP2 AND ISZERO ISZERO PUSH1 0x60 DUP6 ADD MSTORE PUSH1 0x1 PUSH1 0x1 PUSH1 0xA0 SHL SUB PUSH2 0x100 SWAP2 DUP3 SWAP1 DIV AND PUSH1 0x80 DUP6 ADD MSTORE PUSH1 0x7 DUP6 ADD SLOAD PUSH1 0xA0 DUP6 ADD MSTORE PUSH1 0x8 DUP6 ADD SLOAD PUSH1 0xC0 DUP6 ADD MSTORE PUSH1 0x9 DUP6 ADD SLOAD PUSH1 0xE0 DUP6 ADD MSTORE PUSH1 0xA DUP6 ADD DUP1 SLOAD DUP4 MLOAD DUP2 DUP7 MUL DUP2 ADD DUP7 ADD SWAP1 SWAP5 MSTORE DUP1 DUP5 MSTORE SWAP2 SWAP1 SWAP5 ADD SWAP4 SWAP2 SWAP3 DUP4 ADD DUP3 DUP3 DUP1 ISZERO PUSH2 0xE4F JUMPI PUSH1 0x20 MUL DUP3 ADD SWAP2 SWAP1 PUSH1 0x0 MSTORE PUSH1 0x20 PUSH1 0x0 KECCAK256 SWAP1 JUMPDEST DUP2 SLOAD PUSH1 0x1 PUSH1 0x1 PUSH1 0xA0 SHL SUB AND DUP2 MSTORE PUSH1 0x1 SWAP1 SWAP2 ADD SWAP1 PUSH1 0x20 ADD DUP1 DUP4 GT PUSH2 0xE31 JUMPI JUMPDEST POP POP POP POP POP DUP2 MSTORE PUSH1 0x20 ADD PUSH1 0xB DUP3 ADD DUP1 SLOAD DUP1 PUSH1 0x20 MUL PUSH1 0x20 ADD PUSH1 0x40 MLOAD SWAP1 DUP2 ADD PUSH1 0x40 MSTORE DUP1 SWAP3 SWAP2 SWAP1 DUP2 DUP2 MSTORE PUSH1 0x20 ADD PUSH1 0x0 SWAP1 JUMPDEST DUP3 DUP3 LT ISZERO PUSH2 0xF29 JUMPI DUP4 DUP3 SWAP1 PUSH1 0x0 MSTORE PUSH1 0x20 PUSH1 0x0 KECCAK256 ADD DUP1 SLOAD PUSH2 0xE9C SWAP1 PUSH2 0x2280 JUMP JUMPDEST DUP1 PUSH1 0x1F ADD PUSH1 0x20 DUP1 SWAP2 DIV MUL PUSH1 0x20 ADD PUSH1 0x40 MLOAD SWAP1 DUP2 ADD PUSH1 0x40 MSTORE DUP1 SWAP3 SWAP2 SWAP1 DUP2 DUP2 MSTORE PUSH1 0x20 ADD DUP3 DUP1 SLOAD PUSH2 0xEC8 SWAP1 PUSH2 0x2280 JUMP JUMPDEST DUP1 ISZERO PUSH2 0xF15 JUMPI DUP1 PUSH1 0x1F LT PUSH2 0xEEA JUMPI PUSH2 0x100 DUP1 DUP4 SLOAD DIV MUL DUP4 MSTORE SWAP2 PUSH1 0x20 ADD SWAP2 PUSH2 0xF15 JUMP JUMPDEST DUP3 ADD SWAP2 SWAP1 PUSH1 0x0 MSTORE PUSH1 0x20 PUSH1 0x0 KECCAK256 SWAP1 JUMPDEST DUP2 SLOAD DUP2 MSTORE SWAP1 PUSH1 0x1 ADD SWAP1 PUSH1 0x20 ADD DUP1 DUP4 GT PUSH2 0xEF8 JUMPI DUP3 SWAP1 SUB PUSH1 0x1F AND DUP3 ADD SWAP2 JUMPDEST POP POP POP POP POP DUP2 MSTORE PUSH1 0x20 ADD SWAP1 PUSH1 0x1 ADD SWAP1 PUSH2 0xE7D JUMP JUMPDEST POP POP POP SWAP2 MSTORE POP SWAP1 SWAP4 SWAP3 POP POP POP JUMP JUMPDEST PUSH1 0x0 DUP2 DUP2 MSTORE PUSH1 0x2 PUSH1 0x20 MSTORE PUSH1 0x40 SWAP1 KECCAK256 SLOAD PUSH1 0xFF AND PUSH2 0xF65 JUMPI PUSH1 0x40 MLOAD PUSH3 0x461BCD PUSH1 0xE5 SHL DUP2 MSTORE PUSH1 0x4 ADD PUSH2 0x1A5 SWAP1 PUSH2 0x21F1 JUMP JUMPDEST PUSH1 0x0 DUP2 DUP2 MSTORE PUSH1 0x3 PUSH1 0x20 MSTORE PUSH1 0x40 SWAP1 KECCAK256 PUSH1 0x6 ADD SLOAD PUSH2 0x100 SWAP1 DIV PUSH1 0x1 PUSH1 0x1 PUSH1 0xA0 SHL SUB AND CALLER EQ PUSH2 0xFC9 JUMPI PUSH1 0x40 MLOAD PUSH3 0x461BCD PUSH1 0xE5 SHL DUP2 MSTORE PUSH1 0x20 PUSH1 0x4 DUP3 ADD MSTORE PUSH1 0x13 PUSH1 0x24 DUP3 ADD MSTORE PUSH19 0x556E617574686F72697A656420656E74697479 PUSH1 0x68 SHL PUSH1 0x44 DUP3 ADD MSTORE PUSH1 0x64 ADD PUSH2 0x1A5 JUMP JUMPDEST PUSH1 0x0 DUP2 DUP2 MSTORE PUSH1 0x3 PUSH1 0x20 MSTORE PUSH1 0x40 SWAP1 KECCAK256 PUSH1 0x4 ADD SLOAD PUSH1 0x1 GT PUSH2 0xFFA JUMPI PUSH1 0x40 MLOAD PUSH3 0x461BCD PUSH1 0xE5 SHL DUP2 MSTORE PUSH1 0x4 ADD PUSH2 0x1A5 SWAP1 PUSH2 0x2250 JUMP JUMPDEST PUSH1 0x0 SWAP1 DUP2 MSTORE PUSH1 0x3 PUSH1 0x20 MSTORE PUSH1 0x40 SWAP1 KECCAK256 PUSH1 0x6 ADD DUP1 SLOAD PUSH1 0xFF NOT AND PUSH1 0x1 OR SWAP1 SSTORE JUMP JUMPDEST PUSH1 0x0 DUP4 DUP2 MSTORE PUSH1 0x2 PUSH1 0x20 MSTORE PUSH1 0x40 SWAP1 KECCAK256 SLOAD PUSH1 0xFF AND PUSH2 0x1046 JUMPI PUSH1 0x40 MLOAD PUSH3 0x461BCD PUSH1 0xE5 SHL DUP2 MSTORE PUSH1 0x4 ADD PUSH2 0x1A5 SWAP1 PUSH2 0x21F1 JUMP JUMPDEST PUSH1 0x0 DUP3 MLOAD GT PUSH2 0x108E JUMPI PUSH1 0x40 MLOAD PUSH3 0x461BCD PUSH1 0xE5 SHL DUP2 MSTORE PUSH1 0x20 PUSH1 0x4 DUP3 ADD MSTORE PUSH1 0x14 PUSH1 0x24 DUP3 ADD MSTORE PUSH20 0x4E616D652063616E6E6F7420626520656D707479 PUSH1 0x60 SHL PUSH1 0x44 DUP3 ADD MSTORE PUSH1 0x64 ADD PUSH2 0x1A5 JUMP JUMPDEST PUSH1 0x0 DUP2 MLOAD GT PUSH2 0x10AF JUMPI PUSH1 0x40 MLOAD PUSH3 0x461BCD PUSH1 0xE5 SHL DUP2 MSTORE PUSH1 0x4 ADD PUSH2 0x1A5 SWAP1 PUSH2 0x2219 JUMP JUMPDEST PUSH1 0x0 DUP4 DUP2 MSTORE PUSH1 0x3 PUSH1 0x20 MSTORE PUSH1 0x40 SWAP1 KECCAK256 PUSH1 0x4 ADD SLOAD PUSH1 0x1 GT PUSH2 0x10E0 JUMPI PUSH1 0x40 MLOAD PUSH3 0x461BCD PUSH1 0xE5 SHL DUP2 MSTORE PUSH1 0x4 ADD PUSH2 0x1A5 SWAP1 PUSH2 0x2250 JUMP JUMPDEST PUSH1 0x0 DUP4 DUP2 MSTORE PUSH1 0x5 PUSH1 0x20 SWAP1 DUP2 MSTORE PUSH1 0x40 DUP1 DUP4 KECCAK256 CALLER DUP5 MSTORE SWAP1 SWAP2 MSTORE SWAP1 KECCAK256 SLOAD PUSH1 0xFF AND ISZERO PUSH2 0x113E JUMPI PUSH1 0x40 MLOAD PUSH3 0x461BCD PUSH1 0xE5 SHL DUP2 MSTORE PUSH1 0x20 PUSH1 0x4 DUP3 ADD MSTORE PUSH1 0x11 PUSH1 0x24 DUP3 ADD MSTORE PUSH17 0x105B1C9958591E4818DBDB9D195CDD1959 PUSH1 0x7A SHL PUSH1 0x44 DUP3 ADD MSTORE PUSH1 0x64 ADD PUSH2 0x1A5 JUMP JUMPDEST PUSH2 0x114C PUSH1 0x1 DUP1 SLOAD PUSH1 0x1 ADD SWAP1 SSTORE JUMP JUMPDEST PUSH2 0x1154 PUSH2 0x1A5D JUMP JUMPDEST PUSH1 0x40 DUP2 DUP2 ADD DUP5 SWAP1 MSTORE PUSH1 0x20 DUP1 DUP4 ADD DUP5 DUP2 MSTORE CALLER PUSH1 0x60 DUP6 ADD MSTORE PUSH1 0x1 DUP1 SLOAD DUP6 MSTORE PUSH1 0x0 DUP9 DUP2 MSTORE PUSH1 0x6 DUP5 MSTORE DUP5 DUP2 KECCAK256 DUP7 MLOAD DUP3 MSTORE SWAP1 SWAP4 MSTORE SWAP3 SWAP1 SWAP2 KECCAK256 DUP4 MLOAD DUP2 SSTORE SWAP1 MLOAD DUP4 SWAP3 DUP3 ADD SWAP1 PUSH2 0x119C SWAP1 DUP3 PUSH2 0x2309 JUMP JUMPDEST POP PUSH1 0x40 DUP3 ADD MLOAD PUSH1 0x2 DUP3 ADD SWAP1 PUSH2 0x11B1 SWAP1 DUP3 PUSH2 0x2309 JUMP JUMPDEST POP PUSH1 0x60 DUP3 ADD MLOAD PUSH1 0x3 DUP3 ADD DUP1 SLOAD PUSH1 0x1 PUSH1 0x1 PUSH1 0xA0 SHL SUB NOT AND PUSH1 0x1 PUSH1 0x1 PUSH1 0xA0 SHL SUB SWAP1 SWAP3 AND SWAP2 SWAP1 SWAP2 OR SWAP1 SSTORE PUSH1 0x80 DUP3 ADD MLOAD PUSH1 0x4 DUP3 ADD SSTORE PUSH1 0xA0 DUP3 ADD MLOAD DUP1 MLOAD PUSH2 0x11FD SWAP2 PUSH1 0x5 DUP5 ADD SWAP2 PUSH1 0x20 SWAP1 SWAP2 ADD SWAP1 PUSH2 0x1B0F JUMP JUMPDEST POP POP POP PUSH1 0x0 DUP5 DUP2 MSTORE PUSH1 0x5 PUSH1 0x20 SWAP1 DUP2 MSTORE PUSH1 0x40 DUP1 DUP4 KECCAK256 CALLER DUP5 MSTORE DUP3 MSTORE DUP1 DUP4 KECCAK256 DUP1 SLOAD PUSH1 0xFF NOT AND PUSH1 0x1 SWAP1 DUP2 OR SWAP1 SWAP2 SSTORE DUP8 DUP5 MSTORE PUSH1 0x3 DUP4 MSTORE SWAP1 DUP4 KECCAK256 PUSH1 0xB ADD DUP1 SLOAD SWAP2 DUP3 ADD DUP2 SSTORE DUP4 MSTORE SWAP2 KECCAK256 ADD PUSH2 0x124A DUP4 DUP3 PUSH2 0x2309 JUMP JUMPDEST POP PUSH1 0x0 DUP5 DUP2 MSTORE PUSH1 0x3 PUSH1 0x20 MSTORE PUSH1 0x40 DUP2 KECCAK256 PUSH1 0x5 ADD DUP1 SLOAD SWAP2 PUSH2 0x1268 DUP4 PUSH2 0x23DF JUMP JUMPDEST SWAP2 SWAP1 POP SSTORE POP POP POP POP POP JUMP JUMPDEST PUSH1 0x0 DUP3 DUP2 MSTORE PUSH1 0x2 PUSH1 0x20 MSTORE PUSH1 0x40 SWAP1 KECCAK256 SLOAD PUSH1 0xFF AND PUSH2 0x12A1 JUMPI PUSH1 0x40 MLOAD PUSH3 0x461BCD PUSH1 0xE5 SHL DUP2 MSTORE PUSH1 0x4 ADD PUSH2 0x1A5 SWAP1 PUSH2 0x21F1 JUMP JUMPDEST PUSH1 0x0 DUP3 DUP2 MSTORE PUSH1 0x4 PUSH1 0x20 SWAP1 DUP2 MSTORE PUSH1 0x40 DUP1 DUP4 KECCAK256 CALLER DUP5 MSTORE SWAP1 SWAP2 MSTORE SWAP1 KECCAK256 SLOAD PUSH1 0xFF AND ISZERO PUSH2 0x12FB JUMPI PUSH1 0x40 MLOAD PUSH3 0x461BCD PUSH1 0xE5 SHL DUP2 MSTORE PUSH1 0x20 PUSH1 0x4 DUP3 ADD MSTORE PUSH1 0xD PUSH1 0x24 DUP3 ADD MSTORE PUSH13 0x105B1C9958591E481D9BDD1959 PUSH1 0x9A SHL PUSH1 0x44 DUP3 ADD MSTORE PUSH1 0x64 ADD PUSH2 0x1A5 JUMP JUMPDEST PUSH1 0x0 DUP3 DUP2 MSTORE PUSH1 0x3 PUSH1 0x20 MSTORE PUSH1 0x40 SWAP1 KECCAK256 PUSH1 0x6 ADD SLOAD PUSH1 0xFF AND ISZERO PUSH2 0x1356 JUMPI PUSH1 0x40 MLOAD PUSH3 0x461BCD PUSH1 0xE5 SHL DUP2 MSTORE PUSH1 0x20 PUSH1 0x4 DUP3 ADD MSTORE PUSH1 0x16 PUSH1 0x24 DUP3 ADD MSTORE PUSH22 0x20506F6C6C696E67206E6F7420617661696C61626C65 PUSH1 0x50 SHL PUSH1 0x44 DUP3 ADD MSTORE PUSH1 0x64 ADD PUSH2 0x1A5 JUMP JUMPDEST PUSH1 0x0 DUP3 DUP2 MSTORE PUSH1 0x3 PUSH1 0x20 MSTORE PUSH1 0x40 SWAP1 KECCAK256 PUSH1 0x5 ADD SLOAD PUSH1 0x1 LT PUSH2 0x13B0 JUMPI PUSH1 0x40 MLOAD PUSH3 0x461BCD PUSH1 0xE5 SHL DUP2 MSTORE PUSH1 0x20 PUSH1 0x4 DUP3 ADD MSTORE PUSH1 0x16 PUSH1 0x24 DUP3 ADD MSTORE PUSH22 0x4E6F7420656E6F75676820636F6E74657374616E7473 PUSH1 0x50 SHL PUSH1 0x44 DUP3 ADD MSTORE PUSH1 0x64 ADD PUSH2 0x1A5 JUMP JUMPDEST PUSH1 0x0 DUP3 DUP2 MSTORE PUSH1 0x3 PUSH1 0x20 MSTORE PUSH1 0x40 SWAP1 KECCAK256 PUSH1 0x7 ADD SLOAD PUSH2 0x13CA PUSH2 0x1A3E JUMP JUMPDEST LT ISZERO DUP1 ISZERO PUSH2 0x13EF JUMPI POP PUSH1 0x0 DUP3 DUP2 MSTORE PUSH1 0x3 PUSH1 0x20 MSTORE PUSH1 0x40 SWAP1 KECCAK256 PUSH1 0x8 ADD SLOAD PUSH2 0x13ED PUSH2 0x1A3E JUMP JUMPDEST LT JUMPDEST PUSH2 0x143B JUMPI PUSH1 0x40 MLOAD PUSH3 0x461BCD PUSH1 0xE5 SHL DUP2 MSTORE PUSH1 0x20 PUSH1 0x4 DUP3 ADD MSTORE PUSH1 0x19 PUSH1 0x24 DUP3 ADD MSTORE PUSH32 0x566F74696E67206D75737420626520696E2073657373696F6E00000000000000 PUSH1 0x44 DUP3 ADD MSTORE PUSH1 0x64 ADD PUSH2 0x1A5 JUMP JUMPDEST PUSH1 0x0 DUP3 DUP2 MSTORE PUSH1 0x3 PUSH1 0x20 MSTORE PUSH1 0x40 DUP2 KECCAK256 PUSH1 0x4 ADD DUP1 SLOAD SWAP2 PUSH2 0x1458 DUP4 PUSH2 0x23DF JUMP JUMPDEST SWAP1 SWAP2 SSTORE POP POP PUSH1 0x0 DUP3 DUP2 MSTORE PUSH1 0x3 PUSH1 0x20 SWAP1 DUP2 MSTORE PUSH1 0x40 DUP1 DUP4 KECCAK256 PUSH1 0xA ADD DUP1 SLOAD PUSH1 0x1 DUP2 ADD DUP3 SSTORE SWAP1 DUP5 MSTORE DUP3 DUP5 KECCAK256 ADD DUP1 SLOAD PUSH1 0x1 PUSH1 0x1 PUSH1 0xA0 SHL SUB NOT AND CALLER OR SWAP1 SSTORE DUP5 DUP4 MSTORE PUSH1 0x6 DUP3 MSTORE DUP1 DUP4 KECCAK256 DUP5 DUP5 MSTORE SWAP1 SWAP2 MSTORE DUP2 KECCAK256 PUSH1 0x4 ADD DUP1 SLOAD SWAP2 PUSH2 0x14B1 DUP4 PUSH2 0x23DF JUMP JUMPDEST SWAP1 SWAP2 SSTORE POP POP PUSH1 0x0 DUP3 DUP2 MSTORE PUSH1 0x6 PUSH1 0x20 SWAP1 DUP2 MSTORE PUSH1 0x40 DUP1 DUP4 KECCAK256 DUP5 DUP5 MSTORE DUP3 MSTORE DUP1 DUP4 KECCAK256 PUSH1 0x5 ADD DUP1 SLOAD PUSH1 0x1 DUP2 DUP2 ADD DUP4 SSTORE SWAP2 DUP6 MSTORE DUP4 DUP6 KECCAK256 ADD DUP1 SLOAD PUSH1 0x1 PUSH1 0x1 PUSH1 0xA0 SHL SUB NOT AND CALLER SWAP1 DUP2 OR SWAP1 SWAP2 SSTORE DUP7 DUP6 MSTORE PUSH1 0x4 DUP5 MSTORE DUP3 DUP6 KECCAK256 DUP2 DUP7 MSTORE SWAP1 SWAP4 MSTORE SWAP3 KECCAK256 DUP1 SLOAD PUSH1 0xFF NOT AND SWAP1 SWAP3 OR SWAP1 SWAP2 SSTORE PUSH32 0x4D99B957A2BC29A30EBD96A7BE8E68FE50A3C701DB28A91436490B7D53870CA4 PUSH2 0x153C PUSH2 0x1A3E JUMP JUMPDEST PUSH1 0x40 MLOAD SWAP1 DUP2 MSTORE PUSH1 0x20 ADD PUSH1 0x40 MLOAD DUP1 SWAP2 SUB SWAP1 LOG2 POP POP JUMP JUMPDEST PUSH2 0x1559 PUSH2 0x1A5D JUMP JUMPDEST PUSH1 0x0 DUP4 DUP2 MSTORE PUSH1 0x6 PUSH1 0x20 SWAP1 DUP2 MSTORE PUSH1 0x40 DUP1 DUP4 KECCAK256 DUP6 DUP5 MSTORE DUP3 MSTORE SWAP2 DUP3 SWAP1 KECCAK256 DUP3 MLOAD PUSH1 0xC0 DUP2 ADD SWAP1 SWAP4 MSTORE DUP1 SLOAD DUP4 MSTORE PUSH1 0x1 DUP2 ADD DUP1 SLOAD SWAP2 SWAP3 DUP5 ADD SWAP2 PUSH2 0x1594 SWAP1 PUSH2 0x2280 JUMP JUMPDEST DUP1 PUSH1 0x1F ADD PUSH1 0x20 DUP1 SWAP2 DIV MUL PUSH1 0x20 ADD PUSH1 0x40 MLOAD SWAP1 DUP2 ADD PUSH1 0x40 MSTORE DUP1 SWAP3 SWAP2 SWAP1 DUP2 DUP2 MSTORE PUSH1 0x20 ADD DUP3 DUP1 SLOAD PUSH2 0x15C0 SWAP1 PUSH2 0x2280 JUMP JUMPDEST DUP1 ISZERO PUSH2 0x160D JUMPI DUP1 PUSH1 0x1F LT PUSH2 0x15E2 JUMPI PUSH2 0x100 DUP1 DUP4 SLOAD DIV MUL DUP4 MSTORE SWAP2 PUSH1 0x20 ADD SWAP2 PUSH2 0x160D JUMP JUMPDEST DUP3 ADD SWAP2 SWAP1 PUSH1 0x0 MSTORE PUSH1 0x20 PUSH1 0x0 KECCAK256 SWAP1 JUMPDEST DUP2 SLOAD DUP2 MSTORE SWAP1 PUSH1 0x1 ADD SWAP1 PUSH1 0x20 ADD DUP1 DUP4 GT PUSH2 0x15F0 JUMPI DUP3 SWAP1 SUB PUSH1 0x1F AND DUP3 ADD SWAP2 JUMPDEST POP POP POP POP POP DUP2 MSTORE PUSH1 0x20 ADD PUSH1 0x2 DUP3 ADD DUP1 SLOAD PUSH2 0x1626 SWAP1 PUSH2 0x2280 JUMP JUMPDEST DUP1 PUSH1 0x1F ADD PUSH1 0x20 DUP1 SWAP2 DIV MUL PUSH1 0x20 ADD PUSH1 0x40 MLOAD SWAP1 DUP2 ADD PUSH1 0x40 MSTORE DUP1 SWAP3 SWAP2 SWAP1 DUP2 DUP2 MSTORE PUSH1 0x20 ADD DUP3 DUP1 SLOAD PUSH2 0x1652 SWAP1 PUSH2 0x2280 JUMP JUMPDEST DUP1 ISZERO PUSH2 0x169F JUMPI DUP1 PUSH1 0x1F LT PUSH2 0x1674 JUMPI PUSH2 0x100 DUP1 DUP4 SLOAD DIV MUL DUP4 MSTORE SWAP2 PUSH1 0x20 ADD SWAP2 PUSH2 0x169F JUMP JUMPDEST DUP3 ADD SWAP2 SWAP1 PUSH1 0x0 MSTORE PUSH1 0x20 PUSH1 0x0 KECCAK256 SWAP1 JUMPDEST DUP2 SLOAD DUP2 MSTORE SWAP1 PUSH1 0x1 ADD SWAP1 PUSH1 0x20 ADD DUP1 DUP4 GT PUSH2 0x1682 JUMPI DUP3 SWAP1 SUB PUSH1 0x1F AND DUP3 ADD SWAP2 JUMPDEST POP POP POP POP POP DUP2 MSTORE PUSH1 0x20 ADD PUSH1 0x3 DUP3 ADD PUSH1 0x0 SWAP1 SLOAD SWAP1 PUSH2 0x100 EXP SWAP1 DIV PUSH1 0x1 PUSH1 0x1 PUSH1 0xA0 SHL SUB AND PUSH1 0x1 PUSH1 0x1 PUSH1 0xA0 SHL SUB AND PUSH1 0x1 PUSH1 0x1 PUSH1 0xA0 SHL SUB AND DUP2 MSTORE PUSH1 0x20 ADD PUSH1 0x4 DUP3 ADD SLOAD DUP2 MSTORE PUSH1 0x20 ADD PUSH1 0x5 DUP3 ADD DUP1 SLOAD DUP1 PUSH1 0x20 MUL PUSH1 0x20 ADD PUSH1 0x40 MLOAD SWAP1 DUP2 ADD PUSH1 0x40 MSTORE DUP1 SWAP3 SWAP2 SWAP1 DUP2 DUP2 MSTORE PUSH1 0x20 ADD DUP3 DUP1 SLOAD DUP1 ISZERO PUSH2 0x173A JUMPI PUSH1 0x20 MUL DUP3 ADD SWAP2 SWAP1 PUSH1 0x0 MSTORE PUSH1 0x20 PUSH1 0x0 KECCAK256 SWAP1 JUMPDEST DUP2 SLOAD PUSH1 0x1 PUSH1 0x1 PUSH1 0xA0 SHL SUB AND DUP2 MSTORE PUSH1 0x1 SWAP1 SWAP2 ADD SWAP1 PUSH1 0x20 ADD DUP1 DUP4 GT PUSH2 0x171C JUMPI JUMPDEST POP POP POP POP POP DUP2 MSTORE POP POP SWAP1 POP JUMPDEST SWAP3 SWAP2 POP POP JUMP JUMPDEST PUSH1 0x0 DUP5 MLOAD GT PUSH2 0x1795 JUMPI PUSH1 0x40 MLOAD PUSH3 0x461BCD PUSH1 0xE5 SHL DUP2 MSTORE PUSH1 0x20 PUSH1 0x4 DUP3 ADD MSTORE PUSH1 0x15 PUSH1 0x24 DUP3 ADD MSTORE PUSH21 0x5469746C652063616E6E6F7420626520656D707479 PUSH1 0x58 SHL PUSH1 0x44 DUP3 ADD MSTORE PUSH1 0x64 ADD PUSH2 0x1A5 JUMP JUMPDEST PUSH1 0x0 DUP4 MLOAD GT PUSH2 0x17E6 JUMPI PUSH1 0x40 MLOAD PUSH3 0x461BCD PUSH1 0xE5 SHL DUP2 MSTORE PUSH1 0x20 PUSH1 0x4 DUP3 ADD MSTORE PUSH1 0x1B PUSH1 0x24 DUP3 ADD MSTORE PUSH32 0x4465736372697074696F6E2063616E6E6F7420626520656D7074790000000000 PUSH1 0x44 DUP3 ADD MSTORE PUSH1 0x64 ADD PUSH2 0x1A5 JUMP JUMPDEST PUSH1 0x0 DUP6 MLOAD GT PUSH2 0x1807 JUMPI PUSH1 0x40 MLOAD PUSH3 0x461BCD PUSH1 0xE5 SHL DUP2 MSTORE PUSH1 0x4 ADD PUSH2 0x1A5 SWAP1 PUSH2 0x2219 JUMP JUMPDEST PUSH1 0x0 DUP3 GT PUSH2 0x1861 JUMPI PUSH1 0x40 MLOAD PUSH3 0x461BCD PUSH1 0xE5 SHL DUP2 MSTORE PUSH1 0x20 PUSH1 0x4 DUP3 ADD MSTORE PUSH1 0x21 PUSH1 0x24 DUP3 ADD MSTORE PUSH32 0x53746172742064617465206D7573742062652067726561746572207468616E20 PUSH1 0x44 DUP3 ADD MSTORE PUSH1 0x3 PUSH1 0xFC SHL PUSH1 0x64 DUP3 ADD MSTORE PUSH1 0x84 ADD PUSH2 0x1A5 JUMP JUMPDEST DUP2 DUP2 GT PUSH2 0x18C1 JUMPI PUSH1 0x40 MLOAD PUSH3 0x461BCD PUSH1 0xE5 SHL DUP2 MSTORE PUSH1 0x20 PUSH1 0x4 DUP3 ADD MSTORE PUSH1 0x28 PUSH1 0x24 DUP3 ADD MSTORE PUSH32 0x456E642064617465206D7573742062652067726561746572207468616E207374 PUSH1 0x44 DUP3 ADD MSTORE PUSH8 0x6172742064617465 PUSH1 0xC0 SHL PUSH1 0x64 DUP3 ADD MSTORE PUSH1 0x84 ADD PUSH2 0x1A5 JUMP JUMPDEST PUSH2 0x18CF PUSH1 0x0 DUP1 SLOAD PUSH1 0x1 ADD SWAP1 SSTORE JUMP JUMPDEST PUSH2 0x18D7 PUSH2 0x1A9C JUMP JUMPDEST PUSH1 0x0 SLOAD DUP2 MSTORE PUSH1 0x40 DUP2 ADD DUP6 SWAP1 MSTORE PUSH1 0x60 DUP2 ADD DUP5 SWAP1 MSTORE PUSH1 0x20 DUP2 ADD DUP7 SWAP1 MSTORE PUSH2 0x100 DUP2 ADD DUP4 SWAP1 MSTORE PUSH2 0x120 DUP2 ADD DUP3 SWAP1 MSTORE CALLER PUSH1 0xE0 DUP3 ADD MSTORE PUSH2 0x190F PUSH2 0x1A3E JUMP JUMPDEST PUSH2 0x140 DUP3 ADD MSTORE DUP1 MLOAD PUSH1 0x0 SWAP1 DUP2 MSTORE PUSH1 0x3 PUSH1 0x20 SWAP1 DUP2 MSTORE PUSH1 0x40 SWAP1 SWAP2 KECCAK256 DUP3 MLOAD DUP2 SSTORE SWAP1 DUP3 ADD MLOAD DUP3 SWAP2 SWAP1 PUSH1 0x1 DUP3 ADD SWAP1 PUSH2 0x1942 SWAP1 DUP3 PUSH2 0x2309 JUMP JUMPDEST POP PUSH1 0x40 DUP3 ADD MLOAD PUSH1 0x2 DUP3 ADD SWAP1 PUSH2 0x1957 SWAP1 DUP3 PUSH2 0x2309 JUMP JUMPDEST POP PUSH1 0x60 DUP3 ADD MLOAD PUSH1 0x3 DUP3 ADD SWAP1 PUSH2 0x196C SWAP1 DUP3 PUSH2 0x2309 JUMP JUMPDEST POP PUSH1 0x80 DUP3 ADD MLOAD PUSH1 0x4 DUP3 ADD SSTORE PUSH1 0xA0 DUP3 ADD MLOAD PUSH1 0x5 DUP3 ADD SSTORE PUSH1 0xC0 DUP3 ADD MLOAD PUSH1 0x6 DUP3 ADD DUP1 SLOAD PUSH1 0xE0 DUP6 ADD MLOAD PUSH1 0x1 PUSH1 0x1 PUSH1 0xA8 SHL SUB NOT SWAP1 SWAP2 AND SWAP3 ISZERO ISZERO PUSH2 0x100 PUSH1 0x1 PUSH1 0xA8 SHL SUB NOT AND SWAP3 SWAP1 SWAP3 OR PUSH2 0x100 PUSH1 0x1 PUSH1 0x1 PUSH1 0xA0 SHL SUB SWAP1 SWAP4 AND DUP4 MUL OR SWAP1 SSTORE DUP3 ADD MLOAD PUSH1 0x7 DUP3 ADD SSTORE PUSH2 0x120 DUP3 ADD MLOAD PUSH1 0x8 DUP3 ADD SSTORE PUSH2 0x140 DUP3 ADD MLOAD PUSH1 0x9 DUP3 ADD SSTORE PUSH2 0x160 DUP3 ADD MLOAD DUP1 MLOAD PUSH2 0x19FC SWAP2 PUSH1 0xA DUP5 ADD SWAP2 PUSH1 0x20 SWAP1 SWAP2 ADD SWAP1 PUSH2 0x1B0F JUMP JUMPDEST POP PUSH2 0x180 DUP3 ADD MLOAD DUP1 MLOAD PUSH2 0x1A19 SWAP2 PUSH1 0xB DUP5 ADD SWAP2 PUSH1 0x20 SWAP1 SWAP2 ADD SWAP1 PUSH2 0x1B74 JUMP JUMPDEST POP POP SWAP1 MLOAD PUSH1 0x0 SWAP1 DUP2 MSTORE PUSH1 0x2 PUSH1 0x20 MSTORE PUSH1 0x40 SWAP1 KECCAK256 DUP1 SLOAD PUSH1 0xFF NOT AND PUSH1 0x1 OR SWAP1 SSTORE POP POP POP POP POP POP JUMP JUMPDEST PUSH1 0x0 PUSH2 0x1A4C TIMESTAMP PUSH2 0x3E8 PUSH2 0x240E JUMP JUMPDEST PUSH2 0x1A58 SWAP1 PUSH2 0x3E8 PUSH2 0x2425 JUMP JUMPDEST SWAP1 POP SWAP1 JUMP JUMPDEST PUSH1 0x40 MLOAD DUP1 PUSH1 0xC0 ADD PUSH1 0x40 MSTORE DUP1 PUSH1 0x0 DUP2 MSTORE PUSH1 0x20 ADD PUSH1 0x60 DUP2 MSTORE PUSH1 0x20 ADD PUSH1 0x60 DUP2 MSTORE PUSH1 0x20 ADD PUSH1 0x0 PUSH1 0x1 PUSH1 0x1 PUSH1 0xA0 SHL SUB AND DUP2 MSTORE PUSH1 0x20 ADD PUSH1 0x0 DUP2 MSTORE PUSH1 0x20 ADD PUSH1 0x60 DUP2 MSTORE POP SWAP1 JUMP JUMPDEST PUSH1 0x40 MLOAD DUP1 PUSH2 0x1A0 ADD PUSH1 0x40 MSTORE DUP1 PUSH1 0x0 DUP2 MSTORE PUSH1 0x20 ADD PUSH1 0x60 DUP2 MSTORE PUSH1 0x20 ADD PUSH1 0x60 DUP2 MSTORE PUSH1 0x20 ADD PUSH1 0x60 DUP2 MSTORE PUSH1 0x20 ADD PUSH1 0x0 DUP2 MSTORE PUSH1 0x20 ADD PUSH1 0x0 DUP2 MSTORE PUSH1 0x20 ADD PUSH1 0x0 ISZERO ISZERO DUP2 MSTORE PUSH1 0x20 ADD PUSH1 0x0 PUSH1 0x1 PUSH1 0x1 PUSH1 0xA0 SHL SUB AND DUP2 MSTORE PUSH1 0x20 ADD PUSH1 0x0 DUP2 MSTORE PUSH1 0x20 ADD PUSH1 0x0 DUP2 MSTORE PUSH1 0x20 ADD PUSH1 0x0 DUP2 MSTORE PUSH1 0x20 ADD PUSH1 0x60 DUP2 MSTORE PUSH1 0x20 ADD PUSH1 0x60 DUP2 MSTORE POP SWAP1 JUMP JUMPDEST DUP3 DUP1 SLOAD DUP3 DUP3 SSTORE SWAP1 PUSH1 0x0 MSTORE PUSH1 0x20 PUSH1 0x0 KECCAK256 SWAP1 DUP2 ADD SWAP3 DUP3 ISZERO PUSH2 0x1B64 JUMPI SWAP2 PUSH1 0x20 MUL DUP3 ADD JUMPDEST DUP3 DUP2 GT ISZERO PUSH2 0x1B64 JUMPI DUP3 MLOAD DUP3 SLOAD PUSH1 0x1 PUSH1 0x1 PUSH1 0xA0 SHL SUB NOT AND PUSH1 0x1 PUSH1 0x1 PUSH1 0xA0 SHL SUB SWAP1 SWAP2 AND OR DUP3 SSTORE PUSH1 0x20 SWAP1 SWAP3 ADD SWAP2 PUSH1 0x1 SWAP1 SWAP2 ADD SWAP1 PUSH2 0x1B2F JUMP JUMPDEST POP PUSH2 0x1B70 SWAP3 SWAP2 POP PUSH2 0x1BC6 JUMP JUMPDEST POP SWAP1 JUMP JUMPDEST DUP3 DUP1 SLOAD DUP3 DUP3 SSTORE SWAP1 PUSH1 0x0 MSTORE PUSH1 0x20 PUSH1 0x0 KECCAK256 SWAP1 DUP2 ADD SWAP3 DUP3 ISZERO PUSH2 0x1BBA JUMPI SWAP2 PUSH1 0x20 MUL DUP3 ADD JUMPDEST DUP3 DUP2 GT ISZERO PUSH2 0x1BBA JUMPI DUP3 MLOAD DUP3 SWAP1 PUSH2 0x1BAA SWAP1 DUP3 PUSH2 0x2309 JUMP JUMPDEST POP SWAP2 PUSH1 0x20 ADD SWAP2 SWAP1 PUSH1 0x1 ADD SWAP1 PUSH2 0x1B94 JUMP JUMPDEST POP PUSH2 0x1B70 SWAP3 SWAP2 POP PUSH2 0x1BDB JUMP JUMPDEST JUMPDEST DUP1 DUP3 GT ISZERO PUSH2 0x1B70 JUMPI PUSH1 0x0 DUP2 SSTORE PUSH1 0x1 ADD PUSH2 0x1BC7 JUMP JUMPDEST DUP1 DUP3 GT ISZERO PUSH2 0x1B70 JUMPI PUSH1 0x0 PUSH2 0x1BEF DUP3 DUP3 PUSH2 0x1BF8 JUMP JUMPDEST POP PUSH1 0x1 ADD PUSH2 0x1BDB JUMP JUMPDEST POP DUP1 SLOAD PUSH2 0x1C04 SWAP1 PUSH2 0x2280 JUMP JUMPDEST PUSH1 0x0 DUP3 SSTORE DUP1 PUSH1 0x1F LT PUSH2 0x1C14 JUMPI POP POP JUMP JUMPDEST PUSH1 0x1F ADD PUSH1 0x20 SWAP1 DIV SWAP1 PUSH1 0x0 MSTORE PUSH1 0x20 PUSH1 0x0 KECCAK256 SWAP1 DUP2 ADD SWAP1 PUSH2 0x1C32 SWAP2 SWAP1 PUSH2 0x1BC6 JUMP JUMPDEST POP JUMP JUMPDEST PUSH4 0x4E487B71 PUSH1 0xE0 SHL PUSH1 0x0 MSTORE PUSH1 0x41 PUSH1 0x4 MSTORE PUSH1 0x24 PUSH1 0x0 REVERT JUMPDEST PUSH1 0x0 DUP3 PUSH1 0x1F DUP4 ADD SLT PUSH2 0x1C5C JUMPI PUSH1 0x0 DUP1 REVERT JUMPDEST DUP2 CALLDATALOAD PUSH8 0xFFFFFFFFFFFFFFFF DUP1 DUP3 GT ISZERO PUSH2 0x1C77 JUMPI PUSH2 0x1C77 PUSH2 0x1C35 JUMP JUMPDEST PUSH1 0x40 MLOAD PUSH1 0x1F DUP4 ADD PUSH1 0x1F NOT SWAP1 DUP2 AND PUSH1 0x3F ADD AND DUP2 ADD SWAP1 DUP3 DUP3 GT DUP2 DUP4 LT OR ISZERO PUSH2 0x1C9F JUMPI PUSH2 0x1C9F PUSH2 0x1C35 JUMP JUMPDEST DUP2 PUSH1 0x40 MSTORE DUP4 DUP2 MSTORE DUP7 PUSH1 0x20 DUP6 DUP9 ADD ADD GT ISZERO PUSH2 0x1CB8 JUMPI PUSH1 0x0 DUP1 REVERT JUMPDEST DUP4 PUSH1 0x20 DUP8 ADD PUSH1 0x20 DUP4 ADD CALLDATACOPY PUSH1 0x0 PUSH1 0x20 DUP6 DUP4 ADD ADD MSTORE DUP1 SWAP5 POP POP POP POP POP SWAP3 SWAP2 POP POP JUMP JUMPDEST PUSH1 0x0 DUP1 PUSH1 0x0 DUP1 PUSH1 0x0 DUP1 PUSH1 0xC0 DUP8 DUP10 SUB SLT ISZERO PUSH2 0x1CF1 JUMPI PUSH1 0x0 DUP1 REVERT JUMPDEST DUP7 CALLDATALOAD SWAP6 POP PUSH1 0x20 DUP8 ADD CALLDATALOAD PUSH8 0xFFFFFFFFFFFFFFFF DUP1 DUP3 GT ISZERO PUSH2 0x1D10 JUMPI PUSH1 0x0 DUP1 REVERT JUMPDEST PUSH2 0x1D1C DUP11 DUP4 DUP12 ADD PUSH2 0x1C4B JUMP JUMPDEST SWAP7 POP PUSH1 0x40 DUP10 ADD CALLDATALOAD SWAP2 POP DUP1 DUP3 GT ISZERO PUSH2 0x1D32 JUMPI PUSH1 0x0 DUP1 REVERT JUMPDEST PUSH2 0x1D3E DUP11 DUP4 DUP12 ADD PUSH2 0x1C4B JUMP JUMPDEST SWAP6 POP PUSH1 0x60 DUP10 ADD CALLDATALOAD SWAP2 POP DUP1 DUP3 GT ISZERO PUSH2 0x1D54 JUMPI PUSH1 0x0 DUP1 REVERT JUMPDEST POP PUSH2 0x1D61 DUP10 DUP3 DUP11 ADD PUSH2 0x1C4B JUMP JUMPDEST SWAP4 POP POP PUSH1 0x80 DUP8 ADD CALLDATALOAD SWAP2 POP PUSH1 0xA0 DUP8 ADD CALLDATALOAD SWAP1 POP SWAP3 SWAP6 POP SWAP3 SWAP6 POP SWAP3 SWAP6 JUMP JUMPDEST PUSH1 0x0 PUSH1 0x20 DUP3 DUP5 SUB SLT ISZERO PUSH2 0x1D8E JUMPI PUSH1 0x0 DUP1 REVERT JUMPDEST POP CALLDATALOAD SWAP2 SWAP1 POP JUMP JUMPDEST PUSH1 0x0 DUP2 MLOAD DUP1 DUP5 MSTORE PUSH1 0x0 JUMPDEST DUP2 DUP2 LT ISZERO PUSH2 0x1DBB JUMPI PUSH1 0x20 DUP2 DUP6 ADD DUP2 ADD MLOAD DUP7 DUP4 ADD DUP3 ADD MSTORE ADD PUSH2 0x1D9F JUMP JUMPDEST POP PUSH1 0x0 PUSH1 0x20 DUP3 DUP7 ADD ADD MSTORE PUSH1 0x20 PUSH1 0x1F NOT PUSH1 0x1F DUP4 ADD AND DUP6 ADD ADD SWAP2 POP POP SWAP3 SWAP2 POP POP JUMP JUMPDEST PUSH1 0x0 DUP2 MLOAD DUP1 DUP5 MSTORE PUSH1 0x20 DUP1 DUP6 ADD SWAP5 POP DUP1 DUP5 ADD PUSH1 0x0 JUMPDEST DUP4 DUP2 LT ISZERO PUSH2 0x1E14 JUMPI DUP2 MLOAD PUSH1 0x1 PUSH1 0x1 PUSH1 0xA0 SHL SUB AND DUP8 MSTORE SWAP6 DUP3 ADD SWAP6 SWAP1 DUP3 ADD SWAP1 PUSH1 0x1 ADD PUSH2 0x1DEF JUMP JUMPDEST POP SWAP5 SWAP6 SWAP5 POP POP POP POP POP JUMP JUMPDEST DUP1 MLOAD DUP3 MSTORE PUSH1 0x0 PUSH1 0x20 DUP3 ADD MLOAD PUSH1 0xC0 PUSH1 0x20 DUP6 ADD MSTORE PUSH2 0x1E3E PUSH1 0xC0 DUP6 ADD DUP3 PUSH2 0x1D95 JUMP JUMPDEST SWAP1 POP PUSH1 0x40 DUP4 ADD MLOAD DUP5 DUP3 SUB PUSH1 0x40 DUP7 ADD MSTORE PUSH2 0x1E57 DUP3 DUP3 PUSH2 0x1D95 JUMP JUMPDEST SWAP2 POP POP PUSH1 0x1 DUP1 PUSH1 0xA0 SHL SUB PUSH1 0x60 DUP5 ADD MLOAD AND PUSH1 0x60 DUP6 ADD MSTORE PUSH1 0x80 DUP4 ADD MLOAD PUSH1 0x80 DUP6 ADD MSTORE PUSH1 0xA0 DUP4 ADD MLOAD DUP5 DUP3 SUB PUSH1 0xA0 DUP7 ADD MSTORE PUSH2 0x1E8D DUP3 DUP3 PUSH2 0x1DDB JUMP JUMPDEST SWAP6 SWAP5 POP POP POP POP POP JUMP JUMPDEST PUSH1 0x0 PUSH1 0x20 DUP1 DUP4 ADD DUP2 DUP5 MSTORE DUP1 DUP6 MLOAD DUP1 DUP4 MSTORE PUSH1 0x40 DUP7 ADD SWAP2 POP PUSH1 0x40 DUP2 PUSH1 0x5 SHL DUP8 ADD ADD SWAP3 POP DUP4 DUP8 ADD PUSH1 0x0 JUMPDEST DUP3 DUP2 LT ISZERO PUSH2 0x1EEB JUMPI PUSH1 0x3F NOT DUP9 DUP7 SUB ADD DUP5 MSTORE PUSH2 0x1ED9 DUP6 DUP4 MLOAD PUSH2 0x1E1F JUMP JUMPDEST SWAP5 POP SWAP3 DUP6 ADD SWAP3 SWAP1 DUP6 ADD SWAP1 PUSH1 0x1 ADD PUSH2 0x1EBD JUMP JUMPDEST POP SWAP3 SWAP8 SWAP7 POP POP POP POP POP POP POP JUMP JUMPDEST PUSH1 0x0 DUP2 MLOAD DUP1 DUP5 MSTORE PUSH1 0x20 DUP1 DUP6 ADD DUP1 DUP2 SWAP7 POP DUP4 PUSH1 0x5 SHL DUP2 ADD SWAP2 POP DUP3 DUP7 ADD PUSH1 0x0 JUMPDEST DUP6 DUP2 LT ISZERO PUSH2 0x1F40 JUMPI DUP3 DUP5 SUB DUP10 MSTORE PUSH2 0x1F2E DUP5 DUP4 MLOAD PUSH2 0x1D95 JUMP JUMPDEST SWAP9 DUP6 ADD SWAP9 SWAP4 POP SWAP1 DUP5 ADD SWAP1 PUSH1 0x1 ADD PUSH2 0x1F16 JUMP JUMPDEST POP SWAP2 SWAP8 SWAP7 POP POP POP POP POP POP POP JUMP JUMPDEST PUSH1 0x0 PUSH2 0x1A0 DUP3 MLOAD DUP5 MSTORE PUSH1 0x20 DUP4 ADD MLOAD DUP2 PUSH1 0x20 DUP7 ADD MSTORE PUSH2 0x1F6D DUP3 DUP7 ADD DUP3 PUSH2 0x1D95 JUMP JUMPDEST SWAP2 POP POP PUSH1 0x40 DUP4 ADD MLOAD DUP5 DUP3 SUB PUSH1 0x40 DUP7 ADD MSTORE PUSH2 0x1F87 DUP3 DUP3 PUSH2 0x1D95 JUMP JUMPDEST SWAP2 POP POP PUSH1 0x60 DUP4 ADD MLOAD DUP5 DUP3 SUB PUSH1 0x60 DUP7 ADD MSTORE PUSH2 0x1FA1 DUP3 DUP3 PUSH2 0x1D95 JUMP JUMPDEST SWAP2 POP POP PUSH1 0x80 DUP4 ADD MLOAD PUSH1 0x80 DUP6 ADD MSTORE PUSH1 0xA0 DUP4 ADD MLOAD PUSH1 0xA0 DUP6 ADD MSTORE PUSH1 0xC0 DUP4 ADD MLOAD PUSH2 0x1FCB PUSH1 0xC0 DUP7 ADD DUP3 ISZERO ISZERO SWAP1 MSTORE JUMP JUMPDEST POP PUSH1 0xE0 DUP4 ADD MLOAD PUSH2 0x1FE6 PUSH1 0xE0 DUP7 ADD DUP3 PUSH1 0x1 PUSH1 0x1 PUSH1 0xA0 SHL SUB AND SWAP1 MSTORE JUMP JUMPDEST POP PUSH2 0x100 DUP4 DUP2 ADD MLOAD SWAP1 DUP6 ADD MSTORE PUSH2 0x120 DUP1 DUP5 ADD MLOAD SWAP1 DUP6 ADD MSTORE PUSH2 0x140 DUP1 DUP5 ADD MLOAD SWAP1 DUP6 ADD MSTORE PUSH2 0x160 DUP1 DUP5 ADD MLOAD DUP6 DUP4 SUB DUP3 DUP8 ADD MSTORE PUSH2 0x2020 DUP4 DUP3 PUSH2 0x1DDB JUMP JUMPDEST SWAP3 POP POP POP PUSH2 0x180 DUP1 DUP5 ADD MLOAD DUP6 DUP4 SUB DUP3 DUP8 ADD MSTORE PUSH2 0x203C DUP4 DUP3 PUSH2 0x1EF8 JUMP JUMPDEST SWAP7 SWAP6 POP POP POP POP POP POP JUMP JUMPDEST PUSH1 0x0 PUSH1 0x20 DUP1 DUP4 ADD DUP2 DUP5 MSTORE DUP1 DUP6 MLOAD DUP1 DUP4 MSTORE PUSH1 0x40 DUP7 ADD SWAP2 POP PUSH1 0x40 DUP2 PUSH1 0x5 SHL DUP8 ADD ADD SWAP3 POP DUP4 DUP8 ADD PUSH1 0x0 JUMPDEST DUP3 DUP2 LT ISZERO PUSH2 0x1EEB JUMPI PUSH1 0x3F NOT DUP9 DUP7 SUB ADD DUP5 MSTORE PUSH2 0x2089 DUP6 DUP4 MLOAD PUSH2 0x1F4D JUMP JUMPDEST SWAP5 POP SWAP3 DUP6 ADD SWAP3 SWAP1 DUP6 ADD SWAP1 PUSH1 0x1 ADD PUSH2 0x206D JUMP JUMPDEST PUSH1 0x20 DUP2 MSTORE PUSH1 0x0 PUSH2 0x20AE PUSH1 0x20 DUP4 ADD DUP5 PUSH2 0x1F4D JUMP JUMPDEST SWAP4 SWAP3 POP POP POP JUMP JUMPDEST PUSH1 0x0 DUP1 PUSH1 0x0 PUSH1 0x60 DUP5 DUP7 SUB SLT ISZERO PUSH2 0x20CA JUMPI PUSH1 0x0 DUP1 REVERT JUMPDEST DUP4 CALLDATALOAD SWAP3 POP PUSH1 0x20 DUP5 ADD CALLDATALOAD PUSH8 0xFFFFFFFFFFFFFFFF DUP1 DUP3 GT ISZERO PUSH2 0x20E9 JUMPI PUSH1 0x0 DUP1 REVERT JUMPDEST PUSH2 0x20F5 DUP8 DUP4 DUP9 ADD PUSH2 0x1C4B JUMP JUMPDEST SWAP4 POP PUSH1 0x40 DUP7 ADD CALLDATALOAD SWAP2 POP DUP1 DUP3 GT ISZERO PUSH2 0x210B JUMPI PUSH1 0x0 DUP1 REVERT JUMPDEST POP PUSH2 0x2118 DUP7 DUP3 DUP8 ADD PUSH2 0x1C4B JUMP JUMPDEST SWAP2 POP POP SWAP3 POP SWAP3 POP SWAP3 JUMP JUMPDEST PUSH1 0x0 DUP1 PUSH1 0x40 DUP4 DUP6 SUB SLT ISZERO PUSH2 0x2135 JUMPI PUSH1 0x0 DUP1 REVERT JUMPDEST POP POP DUP1 CALLDATALOAD SWAP3 PUSH1 0x20 SWAP1 SWAP2 ADD CALLDATALOAD SWAP2 POP JUMP JUMPDEST PUSH1 0x20 DUP2 MSTORE PUSH1 0x0 PUSH2 0x20AE PUSH1 0x20 DUP4 ADD DUP5 PUSH2 0x1E1F JUMP JUMPDEST PUSH1 0x0 DUP1 PUSH1 0x0 DUP1 PUSH1 0x0 PUSH1 0xA0 DUP7 DUP9 SUB SLT ISZERO PUSH2 0x216F JUMPI PUSH1 0x0 DUP1 REVERT JUMPDEST DUP6 CALLDATALOAD PUSH8 0xFFFFFFFFFFFFFFFF DUP1 DUP3 GT ISZERO PUSH2 0x2187 JUMPI PUSH1 0x0 DUP1 REVERT JUMPDEST PUSH2 0x2193 DUP10 DUP4 DUP11 ADD PUSH2 0x1C4B JUMP JUMPDEST SWAP7 POP PUSH1 0x20 DUP9 ADD CALLDATALOAD SWAP2 POP DUP1 DUP3 GT ISZERO PUSH2 0x21A9 JUMPI PUSH1 0x0 DUP1 REVERT JUMPDEST PUSH2 0x21B5 DUP10 DUP4 DUP11 ADD PUSH2 0x1C4B JUMP JUMPDEST SWAP6 POP PUSH1 0x40 DUP9 ADD CALLDATALOAD SWAP2 POP DUP1 DUP3 GT ISZERO PUSH2 0x21CB JUMPI PUSH1 0x0 DUP1 REVERT JUMPDEST POP PUSH2 0x21D8 DUP9 DUP3 DUP10 ADD PUSH2 0x1C4B JUMP JUMPDEST SWAP6 SWAP9 SWAP5 SWAP8 POP SWAP5 SWAP6 PUSH1 0x60 DUP2 ADD CALLDATALOAD SWAP6 POP PUSH1 0x80 ADD CALLDATALOAD SWAP4 SWAP3 POP POP POP JUMP JUMPDEST PUSH1 0x20 DUP1 DUP3 MSTORE PUSH1 0xE SWAP1 DUP3 ADD MSTORE PUSH14 0x141BDB1B081B9BDD08199BDD5B99 PUSH1 0x92 SHL PUSH1 0x40 DUP3 ADD MSTORE PUSH1 0x60 ADD SWAP1 JUMP JUMPDEST PUSH1 0x20 DUP1 DUP3 MSTORE PUSH1 0x19 SWAP1 DUP3 ADD MSTORE PUSH32 0x496D6167652055524C2063616E6E6F7420626520656D70747900000000000000 PUSH1 0x40 DUP3 ADD MSTORE PUSH1 0x60 ADD SWAP1 JUMP JUMPDEST PUSH1 0x20 DUP1 DUP3 MSTORE PUSH1 0x16 SWAP1 DUP3 ADD MSTORE PUSH22 0x506F6C6C2068617320766F74657320616C7265616479 PUSH1 0x50 SHL PUSH1 0x40 DUP3 ADD MSTORE PUSH1 0x60 ADD SWAP1 JUMP JUMPDEST PUSH1 0x1 DUP2 DUP2 SHR SWAP1 DUP3 AND DUP1 PUSH2 0x2294 JUMPI PUSH1 0x7F DUP3 AND SWAP2 POP JUMPDEST PUSH1 0x20 DUP3 LT DUP2 SUB PUSH2 0x22B4 JUMPI PUSH4 0x4E487B71 PUSH1 0xE0 SHL PUSH1 0x0 MSTORE PUSH1 0x22 PUSH1 0x4 MSTORE PUSH1 0x24 PUSH1 0x0 REVERT JUMPDEST POP SWAP2 SWAP1 POP JUMP JUMPDEST PUSH1 0x1F DUP3 GT ISZERO PUSH2 0x2304 JUMPI PUSH1 0x0 DUP2 DUP2 MSTORE PUSH1 0x20 DUP2 KECCAK256 PUSH1 0x1F DUP6 ADD PUSH1 0x5 SHR DUP2 ADD PUSH1 0x20 DUP7 LT ISZERO PUSH2 0x22E1 JUMPI POP DUP1 JUMPDEST PUSH1 0x1F DUP6 ADD PUSH1 0x5 SHR DUP3 ADD SWAP2 POP JUMPDEST DUP2 DUP2 LT ISZERO PUSH2 0x2300 JUMPI DUP3 DUP2 SSTORE PUSH1 0x1 ADD PUSH2 0x22ED JUMP JUMPDEST POP POP POP JUMPDEST POP POP POP JUMP JUMPDEST DUP2 MLOAD PUSH8 0xFFFFFFFFFFFFFFFF DUP2 GT ISZERO PUSH2 0x2323 JUMPI PUSH2 0x2323 PUSH2 0x1C35 JUMP JUMPDEST PUSH2 0x2337 DUP2 PUSH2 0x2331 DUP5 SLOAD PUSH2 0x2280 JUMP JUMPDEST DUP5 PUSH2 0x22BA JUMP JUMPDEST PUSH1 0x20 DUP1 PUSH1 0x1F DUP4 GT PUSH1 0x1 DUP2 EQ PUSH2 0x236C JUMPI PUSH1 0x0 DUP5 ISZERO PUSH2 0x2354 JUMPI POP DUP6 DUP4 ADD MLOAD JUMPDEST PUSH1 0x0 NOT PUSH1 0x3 DUP7 SWAP1 SHL SHR NOT AND PUSH1 0x1 DUP6 SWAP1 SHL OR DUP6 SSTORE PUSH2 0x2300 JUMP JUMPDEST PUSH1 0x0 DUP6 DUP2 MSTORE PUSH1 0x20 DUP2 KECCAK256 PUSH1 0x1F NOT DUP7 AND SWAP2 JUMPDEST DUP3 DUP2 LT ISZERO PUSH2 0x239B JUMPI DUP9 DUP7 ADD MLOAD DUP3 SSTORE SWAP5 DUP5 ADD SWAP5 PUSH1 0x1 SWAP1 SWAP2 ADD SWAP1 DUP5 ADD PUSH2 0x237C JUMP JUMPDEST POP DUP6 DUP3 LT ISZERO PUSH2 0x23B9 JUMPI DUP8 DUP6 ADD MLOAD PUSH1 0x0 NOT PUSH1 0x3 DUP9 SWAP1 SHL PUSH1 0xF8 AND SHR NOT AND DUP2 SSTORE JUMPDEST POP POP POP POP POP PUSH1 0x1 SWAP1 DUP2 SHL ADD SWAP1 SSTORE POP JUMP JUMPDEST PUSH4 0x4E487B71 PUSH1 0xE0 SHL PUSH1 0x0 MSTORE PUSH1 0x11 PUSH1 0x4 MSTORE PUSH1 0x24 PUSH1 0x0 REVERT JUMPDEST PUSH1 0x0 PUSH1 0x1 DUP3 ADD PUSH2 0x23F1 JUMPI PUSH2 0x23F1 PUSH2 0x23C9 JUMP JUMPDEST POP PUSH1 0x1 ADD SWAP1 JUMP JUMPDEST PUSH4 0x4E487B71 PUSH1 0xE0 SHL PUSH1 0x0 MSTORE PUSH1 0x32 PUSH1 0x4 MSTORE PUSH1 0x24 PUSH1 0x0 REVERT JUMPDEST DUP1 DUP3 MUL DUP2 ISZERO DUP3 DUP3 DIV DUP5 EQ OR PUSH2 0x1746 JUMPI PUSH2 0x1746 PUSH2 0x23C9 JUMP JUMPDEST DUP1 DUP3 ADD DUP1 DUP3 GT ISZERO PUSH2 0x1746 JUMPI PUSH2 0x1746 PUSH2 0x23C9 JUMP INVALID LOG2 PUSH5 0x6970667358 0x22 SLT KECCAK256 CALLCODE 0xE6 SELFBALANCE REVERT 0x23 DUP13 DUP6 0x2B CALLDATASIZE SWAP2 0x23 0xBD SWAP16 RETURNDATASIZE RETURN 0xE9 SGT 0x4F MSIZE 0x2D LOG1 LOG2 CALL 0xFB 0xA5 DIV SWAP1 PUSH2 0xCD72 EXTCODEHASH PUSH28 0x64736F6C634300081100330000000000000000000000000000000000 "},"methodIdentifiers":{"contest(uint256,string,string)":"66dd51dc","createPoll(string,string,string,uint256,uint256)":"f0d0bc45","deletePoll(uint256)":"1f35b51d","getContestant(uint256)":"0559dd65","getContestant(uint256,uint256)":"d3436411","getPoll(uint256)":"1a8cbcaa","getPolls()":"120fe89b","updatePoll(uint256,string,string,string,uint256,uint256)":"029433f0","vote(uint256,uint256)":"b384abef"}}}}}