{
  "_format": "hh-sol-artifact-1",
  "contractName": "DappVotes",
  "sourceName": "contracts/DappVotes.sol",
  "abi": [
    {
      "anonymous": false,
      "inputs": [
        {
          "indexed": true,
          "internalType": "address",
          "name": "voter",
          "type": "address"
        },
        {
          "indexed": false,
          "internalType": "uint256",
          "name": "timestamp",
          "type": "uint256"
        }
      ],
      "name": "Voted",
      "type": "event"
    },
    {
      "inputs": [
        {
          "internalType": "uint256",
          "name": "id",
          "type": "uint256"
        },
        {
          "internalType": "string",
          "name": "name",
          "type": "string"
        },
        {
          "internalType": "string",
          "name": "image",
          "type": "string"
        }
      ],
      "name": "contest",
      "outputs": [],
      "stateMutability": "nonpayable",
      "type": "function"
    },
    {
      "inputs": [
        {
          "internalType": "string",
          "name": "image",
          "type": "string"
        },
        {
          "internalType": "string",
          "name": "title",
          "type": "string"
        },
        {
          "internalType": "string",
          "name": "description",
          "type": "string"
        },
        {
          "internalType": "uint256",
          "name": "startsAt",
          "type": "uint256"
        },
        {
          "internalType": "uint256",
          "name": "endsAt",
          "type": "uint256"
        }
      ],
      "name": "createPoll",
      "outputs": [],
      "stateMutability": "nonpayable",
      "type": "function"
    },
    {
      "inputs": [
        {
          "internalType": "uint256",
          "name": "id",
          "type": "uint256"
        }
      ],
      "name": "deletePoll",
      "outputs": [],
      "stateMutability": "nonpayable",
      "type": "function"
    },
    {
      "inputs": [
        {
          "internalType": "uint256",
          "name": "id",
          "type": "uint256"
        },
        {
          "internalType": "uint256",
          "name": "cid",
          "type": "uint256"
        }
      ],
      "name": "getContestant",
      "outputs": [
        {
          "components": [
            {
              "internalType": "uint256",
              "name": "id",
              "type": "uint256"
            },
            {
              "internalType": "string",
              "name": "image",
              "type": "string"
            },
            {
              "internalType": "string",
              "name": "name",
              "type": "string"
            },
            {
              "internalType": "address",
              "name": "voter",
              "type": "address"
            },
            {
              "internalType": "uint256",
              "name": "votes",
              "type": "uint256"
            },
            {
              "internalType": "address[]",
              "name": "voters",
              "type": "address[]"
            }
          ],
          "internalType": "struct DappVotes.ContestantStruct",
          "name": "",
          "type": "tuple"
        }
      ],
      "stateMutability": "view",
      "type": "function"
    },
    {
      "inputs": [
        {
          "internalType": "uint256",
          "name": "id",
          "type": "uint256"
        }
      ],
      "name": "getContestants",
      "outputs": [
        {
          "components": [
            {
              "internalType": "uint256",
              "name": "id",
              "type": "uint256"
            },
            {
              "internalType": "string",
              "name": "image",
              "type": "string"
            },
            {
              "internalType": "string",
              "name": "name",
              "type": "string"
            },
            {
              "internalType": "address",
              "name": "voter",
              "type": "address"
            },
            {
              "internalType": "uint256",
              "name": "votes",
              "type": "uint256"
            },
            {
              "internalType": "address[]",
              "name": "voters",
              "type": "address[]"
            }
          ],
          "internalType": "struct DappVotes.ContestantStruct[]",
          "name": "Contestants",
          "type": "tuple[]"
        }
      ],
      "stateMutability": "view",
      "type": "function"
    },
    {
      "inputs": [
        {
          "internalType": "uint256",
          "name": "id",
          "type": "uint256"
        }
      ],
      "name": "getPoll",
      "outputs": [
        {
          "components": [
            {
              "internalType": "uint256",
              "name": "id",
              "type": "uint256"
            },
            {
              "internalType": "string",
              "name": "image",
              "type": "string"
            },
            {
              "internalType": "string",
              "name": "title",
              "type": "string"
            },
            {
              "internalType": "string",
              "name": "description",
              "type": "string"
            },
            {
              "internalType": "uint256",
              "name": "votes",
              "type": "uint256"
            },
            {
              "internalType": "uint256",
              "name": "contestants",
              "type": "uint256"
            },
            {
              "internalType": "bool",
              "name": "deleted",
              "type": "bool"
            },
            {
              "internalType": "address",
              "name": "director",
              "type": "address"
            },
            {
              "internalType": "uint256",
              "name": "startsAt",
              "type": "uint256"
            },
            {
              "internalType": "uint256",
              "name": "endsAt",
              "type": "uint256"
            },
            {
              "internalType": "uint256",
              "name": "timestamp",
              "type": "uint256"
            },
            {
              "internalType": "address[]",
              "name": "voters",
              "type": "address[]"
            },
            {
              "internalType": "string[]",
              "name": "avatars",
              "type": "string[]"
            },
            {
              "internalType": "uint256[]",
              "name": "contestantIds",
              "type": "uint256[]"
            }
          ],
          "internalType": "struct DappVotes.PollStruct",
          "name": "",
          "type": "tuple"
        }
      ],
      "stateMutability": "view",
      "type": "function"
    },
    {
      "inputs": [],
      "name": "getPolls",
      "outputs": [
        {
          "components": [
            {
              "internalType": "uint256",
              "name": "id",
              "type": "uint256"
            },
            {
              "internalType": "string",
              "name": "image",
              "type": "string"
            },
            {
              "internalType": "string",
              "name": "title",
              "type": "string"
            },
            {
              "internalType": "string",
              "name": "description",
              "type": "string"
            },
            {
              "internalType": "uint256",
              "name": "votes",
              "type": "uint256"
            },
            {
              "internalType": "uint256",
              "name": "contestants",
              "type": "uint256"
            },
            {
              "internalType": "bool",
              "name": "deleted",
              "type": "bool"
            },
            {
              "internalType": "address",
              "name": "director",
              "type": "address"
            },
            {
              "internalType": "uint256",
              "name": "startsAt",
              "type": "uint256"
            },
            {
              "internalType": "uint256",
              "name": "endsAt",
              "type": "uint256"
            },
            {
              "internalType": "uint256",
              "name": "timestamp",
              "type": "uint256"
            },
            {
              "internalType": "address[]",
              "name": "voters",
              "type": "address[]"
            },
            {
              "internalType": "string[]",
              "name": "avatars",
              "type": "string[]"
            },
            {
              "internalType": "uint256[]",
              "name": "contestantIds",
              "type": "uint256[]"
            }
          ],
          "internalType": "struct DappVotes.PollStruct[]",
          "name": "Polls",
          "type": "tuple[]"
        }
      ],
      "stateMutability": "view",
      "type": "function"
    },
    {
      "inputs": [
        {
          "internalType": "uint256",
          "name": "id",
          "type": "uint256"
        },
        {
          "internalType": "string",
          "name": "image",
          "type": "string"
        },
        {
          "internalType": "string",
          "name": "title",
          "type": "string"
        },
        {
          "internalType": "string",
          "name": "description",
          "type": "string"
        },
        {
          "internalType": "uint256",
          "name": "startsAt",
          "type": "uint256"
        },
        {
          "internalType": "uint256",
          "name": "endsAt",
          "type": "uint256"
        }
      ],
      "name": "updatePoll",
      "outputs": [],
      "stateMutability": "nonpayable",
      "type": "function"
    },
    {
      "inputs": [
        {
          "internalType": "uint256",
          "name": "id",
          "type": "uint256"
        },
        {
          "internalType": "uint256",
          "name": "cid",
          "type": "uint256"
        }
      ],
      "name": "vote",
      "outputs": [],
      "stateMutability": "nonpayable",
      "type": "function"
    }
  ],
  "bytecode": "0x608060405234801561001057600080fd5b506125f4806100206000396000f3fe608060405234801561001057600080fd5b50600436106100935760003560e01c806366dd51dc1161006657806366dd51dc146100fe578063b384abef14610111578063cee9dc4514610124578063d343641114610144578063f0d0bc451461016457600080fd5b8063029433f014610098578063120fe89b146100ad5780631a8cbcaa146100cb5780631f35b51d146100eb575b600080fd5b6100ab6100a6366004611e0f565b610177565b005b6100b561042f565b6040516100c291906120da565b60405180910390f35b6100de6100d936600461213c565b610905565b6040516100c29190612155565b6100ab6100f936600461213c565b610ce0565b6100ab61010c36600461216f565b610dc1565b6100ab61011f3660046121dc565b611045565b61013761013236600461213c565b611323565b6040516100c29190612275565b6101576101523660046121dc565b611629565b6040516100c291906122ca565b6100ab6101723660046122dd565b611824565b60008681526002602052604090205460ff166101ae5760405162461bcd60e51b81526004016101a590612377565b60405180910390fd5b60008681526003602052604090206006015461010090046001600160a01b031633146102125760405162461bcd60e51b8152602060048201526013602482015272556e617574686f72697a656420656e7469747960681b60448201526064016101a5565b600084511161025b5760405162461bcd60e51b81526020600482015260156024820152745469746c652063616e6e6f7420626520656d70747960581b60448201526064016101a5565b60008351116102ac5760405162461bcd60e51b815260206004820152601b60248201527f4465736372697074696f6e2063616e6e6f7420626520656d707479000000000060448201526064016101a5565b60008551116102cd5760405162461bcd60e51b81526004016101a59061239f565b60008681526003602052604090206006015460ff161561032f5760405162461bcd60e51b815260206004820152601760248201527f506f6c6c696e6720616c72656164792064656c6574656400000000000000000060448201526064016101a5565b6000868152600360205260409020600401546001116103605760405162461bcd60e51b81526004016101a5906123d6565b8181116103c45760405162461bcd60e51b815260206004820152602c60248201527f456e642064617465206d7573742062652067726561746572207468616e20746860448201526b65207374617274206461746560a01b60648201526084016101a5565b60008681526003602052604090206002016103df858261248f565b506000868152600360208190526040909120016103fc848261248f565b5060008681526003602052604090206007810183905560088101829055600101610426868261248f565b50505050505050565b6060600060015b60005481116104785760008181526003602052604090206006015460ff16610466578161046281612565565b9250505b8061047081612565565b915050610436565b508067ffffffffffffffff81111561049257610492611d6c565b6040519080825280602002602001820160405280156104cb57816020015b6104b8611b52565b8152602001906001900390816104b05790505b509150600060015b60005481116108ff5760008181526003602052604090206006015460ff166108ed5760036000828152602001908152602001600020604051806101c00160405290816000820154815260200160018201805461052e90612406565b80601f016020809104026020016040519081016040528092919081815260200182805461055a90612406565b80156105a75780601f1061057c576101008083540402835291602001916105a7565b820191906000526020600020905b81548152906001019060200180831161058a57829003601f168201915b505050505081526020016002820180546105c090612406565b80601f01602080910402602001604051908101604052809291908181526020018280546105ec90612406565b80156106395780601f1061060e57610100808354040283529160200191610639565b820191906000526020600020905b81548152906001019060200180831161061c57829003601f168201915b5050505050815260200160038201805461065290612406565b80601f016020809104026020016040519081016040528092919081815260200182805461067e90612406565b80156106cb5780601f106106a0576101008083540402835291602001916106cb565b820191906000526020600020905b8154815290600101906020018083116106ae57829003601f168201915b505050918352505060048201546020808301919091526005830154604080840191909152600684015460ff8116151560608501526001600160a01b0361010091829004166080850152600785015460a0850152600885015460c0850152600985015460e0850152600a850180548351818602810186019094528084529190940193919283018282801561078757602002820191906000526020600020905b81546001600160a01b03168152600190910190602001808311610769575b50505050508152602001600b8201805480602002602001604051908101604052809291908181526020016000905b828210156108615783829060005260206000200180546107d490612406565b80601f016020809104026020016040519081016040528092919081815260200182805461080090612406565b801561084d5780601f106108225761010080835404028352916020019161084d565b820191906000526020600020905b81548152906001019060200180831161083057829003601f168201915b5050505050815260200190600101906107b5565b505050508152602001600c82018054806020026020016040519081016040528092919081815260200182805480156108b857602002820191906000526020600020905b8154815260200190600101908083116108a4575b5050505050815250508483815181106108d3576108d361257e565b602002602001018190525081806108e990612565565b9250505b806108f781612565565b9150506104d3565b50505090565b61090d611b52565b60036000838152602001908152602001600020604051806101c00160405290816000820154815260200160018201805461094690612406565b80601f016020809104026020016040519081016040528092919081815260200182805461097290612406565b80156109bf5780601f10610994576101008083540402835291602001916109bf565b820191906000526020600020905b8154815290600101906020018083116109a257829003601f168201915b505050505081526020016002820180546109d890612406565b80601f0160208091040260200160405190810160405280929190818152602001828054610a0490612406565b8015610a515780601f10610a2657610100808354040283529160200191610a51565b820191906000526020600020905b815481529060010190602001808311610a3457829003601f168201915b50505050508152602001600382018054610a6a90612406565b80601f0160208091040260200160405190810160405280929190818152602001828054610a9690612406565b8015610ae35780601f10610ab857610100808354040283529160200191610ae3565b820191906000526020600020905b815481529060010190602001808311610ac657829003601f168201915b505050918352505060048201546020808301919091526005830154604080840191909152600684015460ff8116151560608501526001600160a01b0361010091829004166080850152600785015460a0850152600885015460c0850152600985015460e0850152600a8501805483518186028101860190945280845291909401939192830182828015610b9f57602002820191906000526020600020905b81546001600160a01b03168152600190910190602001808311610b81575b50505050508152602001600b8201805480602002602001604051908101604052809291908181526020016000905b82821015610c79578382906000526020600020018054610bec90612406565b80601f0160208091040260200160405190810160405280929190818152602001828054610c1890612406565b8015610c655780601f10610c3a57610100808354040283529160200191610c65565b820191906000526020600020905b815481529060010190602001808311610c4857829003601f168201915b505050505081526020019060010190610bcd565b505050508152602001600c8201805480602002602001604051908101604052809291908181526020018280548015610cd057602002820191906000526020600020905b815481526020019060010190808311610cbc575b5050505050815250509050919050565b60008181526002602052604090205460ff16610d0e5760405162461bcd60e51b81526004016101a590612377565b60008181526003602052604090206006015461010090046001600160a01b03163314610d725760405162461bcd60e51b8152602060048201526013602482015272556e617574686f72697a656420656e7469747960681b60448201526064016101a5565b600081815260036020526040902060040154600111610da35760405162461bcd60e51b81526004016101a5906123d6565b6000908152600360205260409020600601805460ff19166001179055565b60008381526002602052604090205460ff16610def5760405162461bcd60e51b81526004016101a590612377565b6000825111610e375760405162461bcd60e51b81526020600482015260146024820152734e616d652063616e6e6f7420626520656d70747960601b60448201526064016101a5565b6000815111610e585760405162461bcd60e51b81526004016101a59061239f565b600083815260036020526040902060040154600111610e895760405162461bcd60e51b81526004016101a5906123d6565b600083815260056020908152604080832033845290915290205460ff1615610ee75760405162461bcd60e51b8152602060048201526011602482015270105b1c9958591e4818dbdb9d195cdd1959607a1b60448201526064016101a5565b610ef5600180546001019055565b610efd611bcc565b6040818101849052602080830184815233606085015260018054855260008881526006845284812086518252909352929091208351815590518392820190610f45908261248f565b5060408201516002820190610f5a908261248f565b5060608201516003820180546001600160a01b0319166001600160a01b039092169190911790556080820151600482015560a08201518051610fa6916005840191602090910190611c0b565b50505060008481526005602090815260408083203384528252808320805460ff1916600190811790915587845260038352908320600b01805491820181558352912001610ff3838261248f565b50600084815260036020526040812060050180549161101183612565565b9091555050600093845260036020908152604085209151600c90920180546001810182559086529420909301929092555050565b60008281526002602052604090205460ff166110735760405162461bcd60e51b81526004016101a590612377565b600082815260046020908152604080832033845290915290205460ff16156110cd5760405162461bcd60e51b815260206004820152600d60248201526c105b1c9958591e481d9bdd1959609a1b60448201526064016101a5565b60008281526003602052604090206006015460ff16156111285760405162461bcd60e51b815260206004820152601660248201527520506f6c6c696e67206e6f7420617661696c61626c6560501b60448201526064016101a5565b6000828152600360205260409020600501546001106111825760405162461bcd60e51b81526020600482015260166024820152754e6f7420656e6f75676820636f6e74657374616e747360501b60448201526064016101a5565b60008281526003602052604090206007015461119c611b33565b101580156111c157506000828152600360205260409020600801546111bf611b33565b105b61120d5760405162461bcd60e51b815260206004820152601960248201527f566f74696e67206d75737420626520696e2073657373696f6e0000000000000060448201526064016101a5565b600082815260036020526040812060040180549161122a83612565565b90915550506000828152600360209081526040808320600a0180546001810182559084528284200180546001600160a01b0319163317905584835260068252808320848452909152812060040180549161128383612565565b9091555050600082815260066020908152604080832084845282528083206005018054600181810183559185528385200180546001600160a01b03191633908117909155868552600484528285208186529093529220805460ff19169092179091557f4d99b957a2bc29a30ebd96a7be8e68fe50a3c701db28a91436490b7d53870ca461130e611b33565b60405190815260200160405180910390a25050565b6060600060015b600054811015611375576000848152600660209081526040808320848452909152902054600103611363578161135f81612565565b9250505b8061136d81612565565b91505061132a565b508067ffffffffffffffff81111561138f5761138f611d6c565b6040519080825280602002602001820160405280156113c857816020015b6113b5611bcc565b8152602001906001900390816113ad5790505b509150600060015b60005481101561162157600085815260066020908152604080832084845290915290205460010361160f576000858152600660209081526040808320848452825291829020825160c0810190935280548352600181018054919284019161143690612406565b80601f016020809104026020016040519081016040528092919081815260200182805461146290612406565b80156114af5780601f10611484576101008083540402835291602001916114af565b820191906000526020600020905b81548152906001019060200180831161149257829003601f168201915b505050505081526020016002820180546114c890612406565b80601f01602080910402602001604051908101604052809291908181526020018280546114f490612406565b80156115415780601f1061151657610100808354040283529160200191611541565b820191906000526020600020905b81548152906001019060200180831161152457829003601f168201915b505050505081526020016003820160009054906101000a90046001600160a01b03166001600160a01b03166001600160a01b0316815260200160048201548152602001600582018054806020026020016040519081016040528092919081815260200182805480156115dc57602002820191906000526020600020905b81546001600160a01b031681526001909101906020018083116115be575b5050505050815250508483806115f190612565565b9450815181106116035761160361257e565b60200260200101819052505b8061161981612565565b9150506113d0565b505050919050565b611631611bcc565b6000838152600660209081526040808320858452825291829020825160c0810190935280548352600181018054919284019161166c90612406565b80601f016020809104026020016040519081016040528092919081815260200182805461169890612406565b80156116e55780601f106116ba576101008083540402835291602001916116e5565b820191906000526020600020905b8154815290600101906020018083116116c857829003601f168201915b505050505081526020016002820180546116fe90612406565b80601f016020809104026020016040519081016040528092919081815260200182805461172a90612406565b80156117775780601f1061174c57610100808354040283529160200191611777565b820191906000526020600020905b81548152906001019060200180831161175a57829003601f168201915b505050505081526020016003820160009054906101000a90046001600160a01b03166001600160a01b03166001600160a01b03168152602001600482015481526020016005820180548060200260200160405190810160405280929190818152602001828054801561181257602002820191906000526020600020905b81546001600160a01b031681526001909101906020018083116117f4575b50505050508152505090505b92915050565b600084511161186d5760405162461bcd60e51b81526020600482015260156024820152745469746c652063616e6e6f7420626520656d70747960581b60448201526064016101a5565b60008351116118be5760405162461bcd60e51b815260206004820152601b60248201527f4465736372697074696f6e2063616e6e6f7420626520656d707479000000000060448201526064016101a5565b60008551116118df5760405162461bcd60e51b81526004016101a59061239f565b600082116119395760405162461bcd60e51b815260206004820152602160248201527f53746172742064617465206d7573742062652067726561746572207468616e206044820152600360fc1b60648201526084016101a5565b8181116119995760405162461bcd60e51b815260206004820152602860248201527f456e642064617465206d7573742062652067726561746572207468616e207374604482015267617274206461746560c01b60648201526084016101a5565b6119a7600080546001019055565b6119af611b52565b6000548152604081018590526060810184905260208101869052610100810183905261012081018290523360e08201526119e7611b33565b6101408201528051600090815260036020908152604090912082518155908201518291906001820190611a1a908261248f565b5060408201516002820190611a2f908261248f565b5060608201516003820190611a44908261248f565b506080820151600482015560a0820151600582015560c082015160068201805460e08501516001600160a81b0319909116921515610100600160a81b031916929092176101006001600160a01b0390931683021790558201516007820155610120820151600882015561014082015160098201556101608201518051611ad491600a840191602090910190611c0b565b506101808201518051611af191600b840191602090910190611c70565b506101a08201518051611b0e91600c840191602090910190611cc2565b505090516000908152600260205260409020805460ff19166001179055505050505050565b6000611b41426103e8612594565b611b4d906103e86125ab565b905090565b604051806101c0016040528060008152602001606081526020016060815260200160608152602001600081526020016000815260200160001515815260200160006001600160a01b031681526020016000815260200160008152602001600081526020016060815260200160608152602001606081525090565b6040518060c0016040528060008152602001606081526020016060815260200160006001600160a01b0316815260200160008152602001606081525090565b828054828255906000526020600020908101928215611c60579160200282015b82811115611c6057825182546001600160a01b0319166001600160a01b03909116178255602090920191600190910190611c2b565b50611c6c929150611cfd565b5090565b828054828255906000526020600020908101928215611cb6579160200282015b82811115611cb65782518290611ca6908261248f565b5091602001919060010190611c90565b50611c6c929150611d12565b828054828255906000526020600020908101928215611c60579160200282015b82811115611c60578251825591602001919060010190611ce2565b5b80821115611c6c5760008155600101611cfe565b80821115611c6c576000611d268282611d2f565b50600101611d12565b508054611d3b90612406565b6000825580601f10611d4b575050565b601f016020900490600052602060002090810190611d699190611cfd565b50565b634e487b7160e01b600052604160045260246000fd5b600082601f830112611d9357600080fd5b813567ffffffffffffffff80821115611dae57611dae611d6c565b604051601f8301601f19908116603f01168101908282118183101715611dd657611dd6611d6c565b81604052838152866020858801011115611def57600080fd5b836020870160208301376000602085830101528094505050505092915050565b60008060008060008060c08789031215611e2857600080fd5b86359550602087013567ffffffffffffffff80821115611e4757600080fd5b611e538a838b01611d82565b96506040890135915080821115611e6957600080fd5b611e758a838b01611d82565b95506060890135915080821115611e8b57600080fd5b50611e9889828a01611d82565b9350506080870135915060a087013590509295509295509295565b6000815180845260005b81811015611ed957602081850181015186830182015201611ebd565b506000602082860101526020601f19601f83011685010191505092915050565b600081518084526020808501945080840160005b83811015611f325781516001600160a01b031687529582019590820190600101611f0d565b509495945050505050565b600082825180855260208086019550808260051b84010181860160005b84811015611f8857601f19868403018952611f76838351611eb3565b98840198925090830190600101611f5a565b5090979650505050505050565b600081518084526020808501945080840160005b83811015611f3257815187529582019590820190600101611fa9565b60006101c0825184526020830151816020860152611fe582860182611eb3565b91505060408301518482036040860152611fff8282611eb3565b915050606083015184820360608601526120198282611eb3565b9150506080830151608085015260a083015160a085015260c083015161204360c086018215159052565b5060e083015161205e60e08601826001600160a01b03169052565b5061010083810151908501526101208084015190850152610140808401519085015261016080840151858303828701526120988382611ef9565b9250505061018080840151858303828701526120b48382611f3d565b925050506101a080840151858303828701526120d08382611f95565b9695505050505050565b6000602080830181845280855180835260408601915060408160051b870101925083870160005b8281101561212f57603f1988860301845261211d858351611fc5565b94509285019290850190600101612101565b5092979650505050505050565b60006020828403121561214e57600080fd5b5035919050565b6020815260006121686020830184611fc5565b9392505050565b60008060006060848603121561218457600080fd5b83359250602084013567ffffffffffffffff808211156121a357600080fd5b6121af87838801611d82565b935060408601359150808211156121c557600080fd5b506121d286828701611d82565b9150509250925092565b600080604083850312156121ef57600080fd5b50508035926020909101359150565b805182526000602082015160c0602085015261221d60c0850182611eb3565b9050604083015184820360408601526122368282611eb3565b91505060018060a01b0360608401511660608501526080830151608085015260a083015184820360a086015261226c8282611ef9565b95945050505050565b6000602080830181845280855180835260408601915060408160051b870101925083870160005b8281101561212f57603f198886030184526122b88583516121fe565b9450928501929085019060010161229c565b60208152600061216860208301846121fe565b600080600080600060a086880312156122f557600080fd5b853567ffffffffffffffff8082111561230d57600080fd5b61231989838a01611d82565b9650602088013591508082111561232f57600080fd5b61233b89838a01611d82565b9550604088013591508082111561235157600080fd5b5061235e88828901611d82565b9598949750949560608101359550608001359392505050565b6020808252600e908201526d141bdb1b081b9bdd08199bdd5b9960921b604082015260600190565b60208082526019908201527f496d6167652055524c2063616e6e6f7420626520656d70747900000000000000604082015260600190565b602080825260169082015275506f6c6c2068617320766f74657320616c726561647960501b604082015260600190565b600181811c9082168061241a57607f821691505b60208210810361243a57634e487b7160e01b600052602260045260246000fd5b50919050565b601f82111561248a57600081815260208120601f850160051c810160208610156124675750805b601f850160051c820191505b8181101561248657828155600101612473565b5050505b505050565b815167ffffffffffffffff8111156124a9576124a9611d6c565b6124bd816124b78454612406565b84612440565b602080601f8311600181146124f257600084156124da5750858301515b600019600386901b1c1916600185901b178555612486565b600085815260208120601f198616915b8281101561252157888601518255948401946001909101908401612502565b508582101561253f5787850151600019600388901b60f8161c191681555b5050505050600190811b01905550565b634e487b7160e01b600052601160045260246000fd5b6000600182016125775761257761254f565b5060010190565b634e487b7160e01b600052603260045260246000fd5b808202811582820484141761181e5761181e61254f565b8082018082111561181e5761181e61254f56fea264697066735822122015b232e355325857c3387ca6dd670da59c22a43cfcac5f6d1c7a10322f4cb09564736f6c63430008110033",
  "linkReferences": {},
  "deployedLinkReferences": {}
}